{
  "contractName": "UserAndNFTMarketplace",
  "abi": [
    {
      "inputs": [],
      "stateMutability": "nonpayable",
      "type": "constructor"
    },
    {
      "inputs": [
        {
          "internalType": "address",
          "name": "sender",
          "type": "address"
        },
        {
          "internalType": "uint256",
          "name": "tokenId",
          "type": "uint256"
        },
        {
          "internalType": "address",
          "name": "owner",
          "type": "address"
        }
      ],
      "name": "ERC721IncorrectOwner",
      "type": "error"
    },
    {
      "inputs": [
        {
          "internalType": "address",
          "name": "operator",
          "type": "address"
        },
        {
          "internalType": "uint256",
          "name": "tokenId",
          "type": "uint256"
        }
      ],
      "name": "ERC721InsufficientApproval",
      "type": "error"
    },
    {
      "inputs": [
        {
          "internalType": "address",
          "name": "approver",
          "type": "address"
        }
      ],
      "name": "ERC721InvalidApprover",
      "type": "error"
    },
    {
      "inputs": [
        {
          "internalType": "address",
          "name": "operator",
          "type": "address"
        }
      ],
      "name": "ERC721InvalidOperator",
      "type": "error"
    },
    {
      "inputs": [
        {
          "internalType": "address",
          "name": "owner",
          "type": "address"
        }
      ],
      "name": "ERC721InvalidOwner",
      "type": "error"
    },
    {
      "inputs": [
        {
          "internalType": "address",
          "name": "receiver",
          "type": "address"
        }
      ],
      "name": "ERC721InvalidReceiver",
      "type": "error"
    },
    {
      "inputs": [
        {
          "internalType": "address",
          "name": "sender",
          "type": "address"
        }
      ],
      "name": "ERC721InvalidSender",
      "type": "error"
    },
    {
      "inputs": [
        {
          "internalType": "uint256",
          "name": "tokenId",
          "type": "uint256"
        }
      ],
      "name": "ERC721NonexistentToken",
      "type": "error"
    },
    {
      "anonymous": false,
      "inputs": [
        {
          "indexed": true,
          "internalType": "address",
          "name": "owner",
          "type": "address"
        },
        {
          "indexed": true,
          "internalType": "address",
          "name": "approved",
          "type": "address"
        },
        {
          "indexed": true,
          "internalType": "uint256",
          "name": "tokenId",
          "type": "uint256"
        }
      ],
      "name": "Approval",
      "type": "event"
    },
    {
      "anonymous": false,
      "inputs": [
        {
          "indexed": true,
          "internalType": "address",
          "name": "owner",
          "type": "address"
        },
        {
          "indexed": true,
          "internalType": "address",
          "name": "operator",
          "type": "address"
        },
        {
          "indexed": false,
          "internalType": "bool",
          "name": "approved",
          "type": "bool"
        }
      ],
      "name": "ApprovalForAll",
      "type": "event"
    },
    {
      "anonymous": false,
      "inputs": [
        {
          "indexed": false,
          "internalType": "uint256",
          "name": "_fromTokenId",
          "type": "uint256"
        },
        {
          "indexed": false,
          "internalType": "uint256",
          "name": "_toTokenId",
          "type": "uint256"
        }
      ],
      "name": "BatchMetadataUpdate",
      "type": "event"
    },
    {
      "anonymous": false,
      "inputs": [
        {
          "indexed": false,
          "internalType": "string",
          "name": "domain",
          "type": "string"
        }
      ],
      "name": "DomainRegistered",
      "type": "event"
    },
    {
      "anonymous": false,
      "inputs": [
        {
          "indexed": true,
          "internalType": "uint256",
          "name": "tokenId",
          "type": "uint256"
        },
        {
          "indexed": false,
          "internalType": "address",
          "name": "seller",
          "type": "address"
        },
        {
          "indexed": false,
          "internalType": "address",
          "name": "owner",
          "type": "address"
        },
        {
          "indexed": false,
          "internalType": "uint256",
          "name": "price",
          "type": "uint256"
        },
        {
          "indexed": false,
          "internalType": "bool",
          "name": "sold",
          "type": "bool"
        },
        {
          "indexed": false,
          "internalType": "string",
          "name": "businessDomain",
          "type": "string"
        }
      ],
      "name": "MarketItemCreated",
      "type": "event"
    },
    {
      "anonymous": false,
      "inputs": [
        {
          "indexed": true,
          "internalType": "uint256",
          "name": "tokenId",
          "type": "uint256"
        },
        {
          "indexed": false,
          "internalType": "address",
          "name": "seller",
          "type": "address"
        },
        {
          "indexed": false,
          "internalType": "address",
          "name": "buyer",
          "type": "address"
        },
        {
          "indexed": false,
          "internalType": "uint256",
          "name": "price",
          "type": "uint256"
        }
      ],
      "name": "MarketItemSold",
      "type": "event"
    },
    {
      "anonymous": false,
      "inputs": [
        {
          "indexed": false,
          "internalType": "uint256",
          "name": "_tokenId",
          "type": "uint256"
        }
      ],
      "name": "MetadataUpdate",
      "type": "event"
    },
    {
      "anonymous": false,
      "inputs": [
        {
          "indexed": false,
          "internalType": "uint256",
          "name": "tokenId",
          "type": "uint256"
        },
        {
          "indexed": false,
          "internalType": "string",
          "name": "businessDomain",
          "type": "string"
        }
      ],
      "name": "NFTDelisted",
      "type": "event"
    },
    {
      "anonymous": false,
      "inputs": [
        {
          "indexed": true,
          "internalType": "uint256",
          "name": "tokenId",
          "type": "uint256"
        },
        {
          "indexed": false,
          "internalType": "address",
          "name": "voter",
          "type": "address"
        },
        {
          "indexed": false,
          "internalType": "bool",
          "name": "isUpvote",
          "type": "bool"
        }
      ],
      "name": "ReviewVoted",
      "type": "event"
    },
    {
      "anonymous": false,
      "inputs": [
        {
          "indexed": true,
          "internalType": "address",
          "name": "from",
          "type": "address"
        },
        {
          "indexed": true,
          "internalType": "address",
          "name": "to",
          "type": "address"
        },
        {
          "indexed": true,
          "internalType": "uint256",
          "name": "tokenId",
          "type": "uint256"
        }
      ],
      "name": "Transfer",
      "type": "event"
    },
    {
      "anonymous": false,
      "inputs": [
        {
          "indexed": false,
          "internalType": "string",
          "name": "username",
          "type": "string"
        },
        {
          "indexed": false,
          "internalType": "address",
          "name": "userAddress",
          "type": "address"
        },
        {
          "indexed": false,
          "internalType": "bool",
          "name": "isBusiness",
          "type": "bool"
        },
        {
          "indexed": false,
          "internalType": "string",
          "name": "businessDomain",
          "type": "string"
        },
        {
          "indexed": false,
          "internalType": "string",
          "name": "businessDescription",
          "type": "string"
        },
        {
          "indexed": false,
          "internalType": "string",
          "name": "businessCategory",
          "type": "string"
        }
      ],
      "name": "UserRegistered",
      "type": "event"
    },
    {
      "inputs": [
        {
          "internalType": "address",
          "name": "",
          "type": "address"
        }
      ],
      "name": "AlluserDomians",
      "outputs": [
        {
          "internalType": "string",
          "name": "",
          "type": "string"
        }
      ],
      "stateMutability": "view",
      "type": "function",
      "constant": true
    },
    {
      "inputs": [
        {
          "internalType": "uint256",
          "name": "",
          "type": "uint256"
        }
      ],
      "name": "Allusers",
      "outputs": [
        {
          "internalType": "address",
          "name": "",
          "type": "address"
        }
      ],
      "stateMutability": "view",
      "type": "function",
      "constant": true
    },
    {
      "inputs": [
        {
          "internalType": "address",
          "name": "to",
          "type": "address"
        },
        {
          "internalType": "uint256",
          "name": "tokenId",
          "type": "uint256"
        }
      ],
      "name": "approve",
      "outputs": [],
      "stateMutability": "nonpayable",
      "type": "function"
    },
    {
      "inputs": [
        {
          "internalType": "address",
          "name": "owner",
          "type": "address"
        }
      ],
      "name": "balanceOf",
      "outputs": [
        {
          "internalType": "uint256",
          "name": "",
          "type": "uint256"
        }
      ],
      "stateMutability": "view",
      "type": "function",
      "constant": true
    },
    {
      "inputs": [
        {
          "internalType": "uint256",
          "name": "tokenId",
          "type": "uint256"
        }
      ],
      "name": "getApproved",
      "outputs": [
        {
          "internalType": "address",
          "name": "",
          "type": "address"
        }
      ],
      "stateMutability": "view",
      "type": "function",
      "constant": true
    },
    {
      "inputs": [
        {
          "internalType": "address",
          "name": "owner",
          "type": "address"
        },
        {
          "internalType": "address",
          "name": "operator",
          "type": "address"
        }
      ],
      "name": "isApprovedForAll",
      "outputs": [
        {
          "internalType": "bool",
          "name": "",
          "type": "bool"
        }
      ],
      "stateMutability": "view",
      "type": "function",
      "constant": true
    },
    {
      "inputs": [],
      "name": "name",
      "outputs": [
        {
          "internalType": "string",
          "name": "",
          "type": "string"
        }
      ],
      "stateMutability": "view",
      "type": "function",
      "constant": true
    },
    {
      "inputs": [
        {
          "internalType": "uint256",
          "name": "tokenId",
          "type": "uint256"
        }
      ],
      "name": "ownerOf",
      "outputs": [
        {
          "internalType": "address",
          "name": "",
          "type": "address"
        }
      ],
      "stateMutability": "view",
      "type": "function",
      "constant": true
    },
    {
      "inputs": [
        {
          "internalType": "string",
          "name": "",
          "type": "string"
        }
      ],
      "name": "registeredDomains",
      "outputs": [
        {
          "internalType": "bool",
          "name": "",
          "type": "bool"
        }
      ],
      "stateMutability": "view",
      "type": "function",
      "constant": true
    },
    {
      "inputs": [
        {
          "internalType": "uint256",
          "name": "",
          "type": "uint256"
        }
      ],
      "name": "registeredDomainsArray",
      "outputs": [
        {
          "internalType": "string",
          "name": "",
          "type": "string"
        }
      ],
      "stateMutability": "view",
      "type": "function",
      "constant": true
    },
    {
      "inputs": [
        {
          "internalType": "address",
          "name": "from",
          "type": "address"
        },
        {
          "internalType": "address",
          "name": "to",
          "type": "address"
        },
        {
          "internalType": "uint256",
          "name": "tokenId",
          "type": "uint256"
        }
      ],
      "name": "safeTransferFrom",
      "outputs": [],
      "stateMutability": "nonpayable",
      "type": "function"
    },
    {
      "inputs": [
        {
          "internalType": "address",
          "name": "from",
          "type": "address"
        },
        {
          "internalType": "address",
          "name": "to",
          "type": "address"
        },
        {
          "internalType": "uint256",
          "name": "tokenId",
          "type": "uint256"
        },
        {
          "internalType": "bytes",
          "name": "data",
          "type": "bytes"
        }
      ],
      "name": "safeTransferFrom",
      "outputs": [],
      "stateMutability": "nonpayable",
      "type": "function"
    },
    {
      "inputs": [
        {
          "internalType": "address",
          "name": "operator",
          "type": "address"
        },
        {
          "internalType": "bool",
          "name": "approved",
          "type": "bool"
        }
      ],
      "name": "setApprovalForAll",
      "outputs": [],
      "stateMutability": "nonpayable",
      "type": "function"
    },
    {
      "inputs": [
        {
          "internalType": "bytes4",
          "name": "interfaceId",
          "type": "bytes4"
        }
      ],
      "name": "supportsInterface",
      "outputs": [
        {
          "internalType": "bool",
          "name": "",
          "type": "bool"
        }
      ],
      "stateMutability": "view",
      "type": "function",
      "constant": true
    },
    {
      "inputs": [],
      "name": "symbol",
      "outputs": [
        {
          "internalType": "string",
          "name": "",
          "type": "string"
        }
      ],
      "stateMutability": "view",
      "type": "function",
      "constant": true
    },
    {
      "inputs": [
        {
          "internalType": "uint256",
          "name": "tokenId",
          "type": "uint256"
        }
      ],
      "name": "tokenURI",
      "outputs": [
        {
          "internalType": "string",
          "name": "",
          "type": "string"
        }
      ],
      "stateMutability": "view",
      "type": "function",
      "constant": true
    },
    {
      "inputs": [
        {
          "internalType": "address",
          "name": "from",
          "type": "address"
        },
        {
          "internalType": "address",
          "name": "to",
          "type": "address"
        },
        {
          "internalType": "uint256",
          "name": "tokenId",
          "type": "uint256"
        }
      ],
      "name": "transferFrom",
      "outputs": [],
      "stateMutability": "nonpayable",
      "type": "function"
    },
    {
      "inputs": [
        {
          "internalType": "address",
          "name": "",
          "type": "address"
        }
      ],
      "name": "users",
      "outputs": [
        {
          "internalType": "string",
          "name": "username",
          "type": "string"
        },
        {
          "internalType": "bool",
          "name": "isBusiness",
          "type": "bool"
        },
        {
          "internalType": "string",
          "name": "businessDomain",
          "type": "string"
        },
        {
          "internalType": "string",
          "name": "businessDescription",
          "type": "string"
        },
        {
          "internalType": "string",
          "name": "businessCategory",
          "type": "string"
        },
        {
          "internalType": "uint256",
          "name": "reputation",
          "type": "uint256"
        }
      ],
      "stateMutability": "view",
      "type": "function",
      "constant": true
    },
    {
      "inputs": [
        {
          "internalType": "string",
          "name": "_username",
          "type": "string"
        },
        {
          "internalType": "bool",
          "name": "_isBusiness",
          "type": "bool"
        },
        {
          "internalType": "string",
          "name": "_businessDomain",
          "type": "string"
        },
        {
          "internalType": "string",
          "name": "_businessDescription",
          "type": "string"
        },
        {
          "internalType": "string",
          "name": "_businessCategory",
          "type": "string"
        }
      ],
      "name": "registerUser",
      "outputs": [],
      "stateMutability": "nonpayable",
      "type": "function"
    },
    {
      "inputs": [],
      "name": "getRegisteredDomains",
      "outputs": [
        {
          "internalType": "string[]",
          "name": "",
          "type": "string[]"
        }
      ],
      "stateMutability": "view",
      "type": "function",
      "constant": true
    },
    {
      "inputs": [
        {
          "internalType": "string",
          "name": "tokenURI",
          "type": "string"
        },
        {
          "internalType": "uint256",
          "name": "price",
          "type": "uint256"
        },
        {
          "internalType": "string",
          "name": "businessDomain",
          "type": "string"
        }
      ],
      "name": "createReviewNFT",
      "outputs": [
        {
          "internalType": "uint256",
          "name": "",
          "type": "uint256"
        }
      ],
      "stateMutability": "payable",
      "type": "function",
      "payable": true
    },
    {
      "inputs": [],
      "name": "fetchBusinessDomains",
      "outputs": [
        {
          "internalType": "string[]",
          "name": "",
          "type": "string[]"
        }
      ],
      "stateMutability": "view",
      "type": "function",
      "constant": true
    },
    {
      "inputs": [],
      "name": "getRegisteredDomainCount",
      "outputs": [
        {
          "internalType": "uint256",
          "name": "",
          "type": "uint256"
        }
      ],
      "stateMutability": "view",
      "type": "function",
      "constant": true
    },
    {
      "inputs": [
        {
          "internalType": "string",
          "name": "businessDomain",
          "type": "string"
        }
      ],
      "name": "fetchNFTsByDomain",
      "outputs": [
        {
          "internalType": "uint256[]",
          "name": "",
          "type": "uint256[]"
        }
      ],
      "stateMutability": "view",
      "type": "function",
      "constant": true
    },
    {
      "inputs": [],
      "name": "fetchUserNFTs",
      "outputs": [
        {
          "internalType": "uint256[]",
          "name": "",
          "type": "uint256[]"
        }
      ],
      "stateMutability": "view",
      "type": "function",
      "constant": true
    },
    {
      "inputs": [
        {
          "internalType": "uint256",
          "name": "tokenId",
          "type": "uint256"
        }
      ],
      "name": "upvoteReview",
      "outputs": [],
      "stateMutability": "nonpayable",
      "type": "function"
    },
    {
      "inputs": [
        {
          "internalType": "uint256",
          "name": "tokenId",
          "type": "uint256"
        }
      ],
      "name": "downvoteReview",
      "outputs": [],
      "stateMutability": "nonpayable",
      "type": "function"
    },
    {
      "inputs": [
        {
          "internalType": "uint256",
          "name": "tokenId",
          "type": "uint256"
        }
      ],
      "name": "getReviewDetails",
      "outputs": [
        {
          "internalType": "string[]",
          "name": "comments",
          "type": "string[]"
        },
        {
          "internalType": "uint256",
          "name": "upvotes",
          "type": "uint256"
        },
        {
          "internalType": "uint256",
          "name": "downvotes",
          "type": "uint256"
        },
        {
          "internalType": "bool",
          "name": "moderated",
          "type": "bool"
        },
        {
          "internalType": "uint256",
          "name": "timestamp",
          "type": "uint256"
        },
        {
          "internalType": "string",
          "name": "category",
          "type": "string"
        },
        {
          "internalType": "string",
          "name": "tokenURI",
          "type": "string"
        },
        {
          "internalType": "uint256",
          "name": "tokenid",
          "type": "uint256"
        },
        {
          "internalType": "address payable",
          "name": "_seller",
          "type": "address"
        },
        {
          "internalType": "address payable",
          "name": "_owner",
          "type": "address"
        },
        {
          "internalType": "uint256",
          "name": "_price",
          "type": "uint256"
        },
        {
          "internalType": "bool",
          "name": "_sold",
          "type": "bool"
        }
      ],
      "stateMutability": "view",
      "type": "function",
      "constant": true
    },
    {
      "inputs": [
        {
          "internalType": "uint256",
          "name": "tokenId",
          "type": "uint256"
        }
      ],
      "name": "hasUserVoted",
      "outputs": [
        {
          "internalType": "bool",
          "name": "",
          "type": "bool"
        }
      ],
      "stateMutability": "view",
      "type": "function",
      "constant": true
    },
    {
      "inputs": [
        {
          "internalType": "uint256",
          "name": "tokenId",
          "type": "uint256"
        },
        {
          "internalType": "string",
          "name": "comment",
          "type": "string"
        }
      ],
      "name": "commentOnReview",
      "outputs": [],
      "stateMutability": "nonpayable",
      "type": "function"
    },
    {
      "inputs": [
        {
          "internalType": "string",
          "name": "businessDomain",
          "type": "string"
        }
      ],
      "name": "getBusinessDetailsByDomain",
      "outputs": [
        {
          "internalType": "string",
          "name": "username",
          "type": "string"
        },
        {
          "internalType": "bool",
          "name": "isBusiness",
          "type": "bool"
        },
        {
          "internalType": "string",
          "name": "userBusinessDomain",
          "type": "string"
        },
        {
          "internalType": "string",
          "name": "businessDescription",
          "type": "string"
        },
        {
          "internalType": "string",
          "name": "businessCategory",
          "type": "string"
        },
        {
          "internalType": "uint256",
          "name": "reputation",
          "type": "uint256"
        }
      ],
      "stateMutability": "view",
      "type": "function",
      "constant": true
    },
    {
      "inputs": [
        {
          "internalType": "string",
          "name": "businessDomain",
          "type": "string"
        }
      ],
      "name": "getUserAddressByDomain",
      "outputs": [
        {
          "internalType": "address",
          "name": "",
          "type": "address"
        }
      ],
      "stateMutability": "view",
      "type": "function",
      "constant": true
    },
    {
      "inputs": [
        {
          "internalType": "uint256",
          "name": "tokenId",
          "type": "uint256"
        }
      ],
      "name": "buyNFT",
      "outputs": [],
      "stateMutability": "payable",
      "type": "function",
      "payable": true
    },
    {
      "inputs": [
        {
          "internalType": "uint256",
          "name": "tokenId",
          "type": "uint256"
        },
        {
          "internalType": "string",
          "name": "businessDomain",
          "type": "string"
        }
      ],
      "name": "delistNFT",
      "outputs": [],
      "stateMutability": "nonpayable",
      "type": "function"
    },
    {
      "inputs": [
        {
          "internalType": "address",
          "name": "checkAddress",
          "type": "address"
        }
      ],
      "name": "isUser",
      "outputs": [
        {
          "internalType": "bool",
          "name": "",
          "type": "bool"
        }
      ],
      "stateMutability": "view",
      "type": "function",
      "constant": true
    }
  ],
  "bytecode": "0x608060405266038d7ea4c68000600955600f600a55600a546103e862000026919062000143565b600b5534801562000035575f80fd5b506040518060400160405280600781526020017f41727462797465000000000000000000000000000000000000000000000000008152506040518060400160405280600381526020017f4152540000000000000000000000000000000000000000000000000000000000815250815f9081620000b29190620003d8565b508060019081620000c49190620003d8565b50505033600c5f6101000a81548173ffffffffffffffffffffffffffffffffffffffff021916908373ffffffffffffffffffffffffffffffffffffffff160217905550620004bc565b5f819050919050565b7f4e487b71000000000000000000000000000000000000000000000000000000005f52601160045260245ffd5b5f6200014f826200010d565b91506200015c836200010d565b925082820390508181111562000177576200017662000116565b5b92915050565b5f81519050919050565b7f4e487b71000000000000000000000000000000000000000000000000000000005f52604160045260245ffd5b7f4e487b71000000000000000000000000000000000000000000000000000000005f52602260045260245ffd5b5f6002820490506001821680620001f957607f821691505b6020821081036200020f576200020e620001b4565b5b50919050565b5f819050815f5260205f209050919050565b5f6020601f8301049050919050565b5f82821b905092915050565b5f60088302620002737fffffffffffffffffffffffffffffffffffffffffffffffffffffffffffffffff8262000236565b6200027f868362000236565b95508019841693508086168417925050509392505050565b5f819050919050565b5f620002c0620002ba620002b4846200010d565b62000297565b6200010d565b9050919050565b5f819050919050565b620002db83620002a0565b620002f3620002ea82620002c7565b84845462000242565b825550505050565b5f90565b62000309620002fb565b62000316818484620002d0565b505050565b5b818110156200033d57620003315f82620002ff565b6001810190506200031c565b5050565b601f8211156200038c57620003568162000215565b620003618462000227565b8101602085101562000371578190505b62000389620003808562000227565b8301826200031b565b50505b505050565b5f82821c905092915050565b5f620003ae5f198460080262000391565b1980831691505092915050565b5f620003c883836200039d565b9150826002028217905092915050565b620003e3826200017d565b67ffffffffffffffff811115620003ff57620003fe62000187565b5b6200040b8254620001e1565b6200041882828562000341565b5f60209050601f8311600181146200044e575f841562000439578287015190505b620004458582620003bb565b865550620004b4565b601f1984166200045e8662000215565b5f5b82811015620004875784890151825560018201915060208501945060208101905062000460565b86831015620004a75784890151620004a3601f8916826200039d565b8355505b6001600288020188555050505b505050505050565b615e9180620004ca5f395ff3fe608060405260043610610202575f3560e01c806380d2ec8611610117578063bae203ac1161009f578063c902d5e61161006e578063c902d5e6146107de578063e617de7b1461081a578063e985e9c514610861578063ef76280f1461089d578063ff5761ac146108c757610202565b8063bae203ac146106e9578063bc86efb814610725578063c3ef102814610761578063c87b56dd146107a257610202565b8063a22cb465116100e6578063a22cb465146105f4578063a87430ba1461061c578063ab076ef41461065d578063b1820e7f14610685578063b88d4fde146106c157610202565b806380d2ec86146105465780638b8ca2991461057057806395d89b41146105a05780639ed2b021146105ca57610202565b806333f779e51161019a5780635153af5c116101695780635153af5c1461044e57806351ed82881461048a5780636352211e146104a65780636465ffda146104e257806370a082311461050a57610202565b806333f779e5146103865780633ced6738146103c25780634209fff1146103ea57806342842e0e1461042657610202565b8063095ea7b3116101d6578063095ea7b3146102d25780630bc119c0146102fa5780630cf4d8de1461032257806323b872dd1461035e57610202565b806281e35d1461020657806301ffc9a71461023057806306fdde031461026c578063081812fc14610296575b5f80fd5b348015610211575f80fd5b5061021a6108ef565b60405161022791906144c3565b60405180910390f35b34801561023b575f80fd5b5061025660048036038101906102519190614549565b610a8a565b604051610263919061458e565b60405180910390f35b348015610277575f80fd5b50610280610aea565b60405161028d91906145ef565b60405180910390f35b3480156102a1575f80fd5b506102bc60048036038101906102b79190614642565b610b79565b6040516102c991906146ac565b60405180910390f35b3480156102dd575f80fd5b506102f860048036038101906102f391906146ef565b610b94565b005b348015610305575f80fd5b50610320600480360381019061031b9190614859565b610baa565b005b34801561032d575f80fd5b5061034860048036038101906103439190614642565b610d89565b60405161035591906145ef565b60405180910390f35b348015610369575f80fd5b50610384600480360381019061037f91906148b3565b610e2f565b005b348015610391575f80fd5b506103ac60048036038101906103a79190614903565b610f2e565b6040516103b991906146ac565b60405180910390f35b3480156103cd575f80fd5b506103e860048036038101906103e39190614642565b6110ec565b005b3480156103f5575f80fd5b50610410600480360381019061040b919061494a565b6111f1565b60405161041d919061458e565b60405180910390f35b348015610431575f80fd5b5061044c600480360381019061044791906148b3565b611293565b005b348015610459575f80fd5b50610474600480360381019061046f9190614642565b6112b2565b604051610481919061458e565b60405180910390f35b6104a4600480360381019061049f9190614642565b6112f6565b005b3480156104b1575f80fd5b506104cc60048036038101906104c79190614642565b611652565b6040516104d991906146ac565b60405180910390f35b3480156104ed575f80fd5b5061050860048036038101906105039190614859565b611663565b005b348015610515575f80fd5b50610530600480360381019061052b919061494a565b611700565b60405161053d9190614984565b60405180910390f35b348015610551575f80fd5b5061055a6117b6565b60405161056791906144c3565b60405180910390f35b61058a6004803603810190610585919061499d565b61188a565b6040516105979190614984565b60405180910390f35b3480156105ab575f80fd5b506105b4611af4565b6040516105c191906145ef565b60405180910390f35b3480156105d5575f80fd5b506105de611b84565b6040516105eb9190614984565b60405180910390f35b3480156105ff575f80fd5b5061061a60048036038101906106159190614a4f565b611c0c565b005b348015610627575f80fd5b50610642600480360381019061063d919061494a565b611c22565b60405161065496959493929190614a8d565b60405180910390f35b348015610668575f80fd5b50610683600480360381019061067e9190614642565b611e7e565b005b348015610690575f80fd5b506106ab60048036038101906106a69190614903565b611f82565b6040516106b89190614bbf565b60405180910390f35b3480156106cc575f80fd5b506106e760048036038101906106e29190614c7d565b61201e565b005b3480156106f4575f80fd5b5061070f600480360381019061070a919061494a565b61203b565b60405161071c91906145ef565b60405180910390f35b348015610730575f80fd5b5061074b60048036038101906107469190614903565b6120d6565b604051610758919061458e565b60405180910390f35b34801561076c575f80fd5b5061078760048036038101906107829190614903565b61210b565b60405161079996959493929190614a8d565b60405180910390f35b3480156107ad575f80fd5b506107c860048036038101906107c39190614642565b6123c4565b6040516107d591906145ef565b60405180910390f35b3480156107e9575f80fd5b5061080460048036038101906107ff9190614642565b6124cf565b60405161081191906146ac565b60405180910390f35b348015610825575f80fd5b50610840600480360381019061083b9190614642565b61250a565b6040516108589c9b9a99989796959493929190614d1d565b60405180910390f35b34801561086c575f80fd5b5061088760048036038101906108829190614dea565b6127c4565b604051610894919061458e565b60405180910390f35b3480156108a8575f80fd5b506108b1612852565b6040516108be9190614bbf565b60405180910390f35b3480156108d2575f80fd5b506108ed60048036038101906108e89190614e28565b612987565b005b60605f6108fa611b84565b90505f8167ffffffffffffffff81111561091757610916614735565b5b60405190808252806020026020018201604052801561094a57816020015b60608152602001906001900390816109355790505b5090505f80600190505b61095e6007612d1d565b8111610a80575f600d5f8381526020019081526020015f20600601805461098490614f3c565b80601f01602080910402602001604051908101604052809291908181526020018280546109b090614f3c565b80156109fb5780601f106109d2576101008083540402835291602001916109fb565b820191905f5260205f20905b8154815290600101906020018083116109de57829003601f168201915b505050505090505f8151118015610a395750600f81604051610a1d9190614fa6565b90815260200160405180910390205f9054906101000a900460ff165b15610a6c5780848481518110610a5257610a51614fbc565b5b60200260200101819052508280610a6890615016565b9350505b508080610a7890615016565b915050610954565b5081935050505090565b5f634906490660e01b7bffffffffffffffffffffffffffffffffffffffffffffffffffffffff1916827bffffffffffffffffffffffffffffffffffffffffffffffffffffffff19161480610ae35750610ae282612d29565b5b9050919050565b60605f8054610af890614f3c565b80601f0160208091040260200160405190810160405280929190818152602001828054610b2490614f3c565b8015610b6f5780601f10610b4657610100808354040283529160200191610b6f565b820191905f5260205f20905b815481529060010190602001808311610b5257829003601f168201915b5050505050905090565b5f610b8382612e0a565b50610b8d82612e90565b9050919050565b610ba68282610ba1612ec9565b612ed0565b5050565b3373ffffffffffffffffffffffffffffffffffffffff16610bca83611652565b73ffffffffffffffffffffffffffffffffffffffff1614610c20576040517f08c379a0000000000000000000000000000000000000000000000000000000008152600401610c17906150cd565b60405180910390fd5b600f81604051610c309190614fa6565b90815260200160405180910390205f9054906101000a900460ff16610c8a576040517f08c379a0000000000000000000000000000000000000000000000000000000008152600401610c819061515b565b60405180910390fd5b5f600d5f8481526020019081526020015f20905081604051602001610caf9190614fa6565b6040516020818303038152906040528051906020012081600601604051602001610cd9919061520b565b6040516020818303038152906040528051906020012014610d2f576040517f08c379a0000000000000000000000000000000000000000000000000000000008152600401610d2690615291565b60405180910390fd5b6001816005015f6101000a81548160ff0219169083151502179055507fc44a416d960fff560e34b81de3618f90a30026982b83be9bd4fcbc01c5034c618383604051610d7c9291906152af565b60405180910390a1505050565b60108181548110610d98575f80fd5b905f5260205f20015f915090508054610db090614f3c565b80601f0160208091040260200160405190810160405280929190818152602001828054610ddc90614f3c565b8015610e275780601f10610dfe57610100808354040283529160200191610e27565b820191905f5260205f20905b815481529060010190602001808311610e0a57829003601f168201915b505050505081565b5f73ffffffffffffffffffffffffffffffffffffffff168273ffffffffffffffffffffffffffffffffffffffff1603610e9f575f6040517f64a0ae92000000000000000000000000000000000000000000000000000000008152600401610e9691906146ac565b60405180910390fd5b5f610eb28383610ead612ec9565b612ee2565b90508373ffffffffffffffffffffffffffffffffffffffff168173ffffffffffffffffffffffffffffffffffffffff1614610f28578382826040517f64283d7b000000000000000000000000000000000000000000000000000000008152600401610f1f939291906152dd565b60405180910390fd5b50505050565b5f805f90505b6012805490508110156110ab575f60115f60128481548110610f5957610f58614fbc565b5b905f5260205f20015f9054906101000a900473ffffffffffffffffffffffffffffffffffffffff1673ffffffffffffffffffffffffffffffffffffffff1673ffffffffffffffffffffffffffffffffffffffff1681526020019081526020015f208054610fc590614f3c565b80601f0160208091040260200160405190810160405280929190818152602001828054610ff190614f3c565b801561103c5780601f106110135761010080835404028352916020019161103c565b820191905f5260205f20905b81548152906001019060200180831161101f57829003601f168201915b50505050509050838051906020012081805190602001200361109d576012828154811061106c5761106b614fbc565b5b905f5260205f20015f9054906101000a900473ffffffffffffffffffffffffffffffffffffffff16925050506110e7565b508080600101915050610f34565b506040517f08c379a00000000000000000000000000000000000000000000000000000000081526004016110de90615382565b60405180910390fd5b919050565b5f600d5f8381526020019081526020015f205f015403611141576040517f08c379a0000000000000000000000000000000000000000000000000000000008152600401611138906153ea565b60405180910390fd5b61114a816112b2565b1561118a576040517f08c379a000000000000000000000000000000000000000000000000000000000815260040161118190615478565b60405180910390fd5b600d5f8281526020019081526020015f206008015f8154809291906111ae90615016565b9190505550807f3e92b80b10e08c7af873b630b9789e2185d397ebfd2ef852e410f7da08a21bf33360016040516111e6929190615496565b60405180910390a250565b5f805f90505b601280549050811015611289578273ffffffffffffffffffffffffffffffffffffffff166012828154811061122f5761122e614fbc565b5b905f5260205f20015f9054906101000a900473ffffffffffffffffffffffffffffffffffffffff1673ffffffffffffffffffffffffffffffffffffffff160361127c57600191505061128e565b80806001019150506111f7565b505f90505b919050565b6112ad83838360405180602001604052805f81525061201e565b505050565b5f80600d5f8481526020019081526020015f2090505f81600701805490501180156112ee57505f816008015411806112ed57505f8160090154115b5b915050919050565b5f600d5f8381526020019081526020015f205f01540361134b576040517f08c379a000000000000000000000000000000000000000000000000000000000815260040161134290615507565b60405180910390fd5b600d5f8281526020019081526020015f206005015f9054906101000a900460ff16156113ac576040517f08c379a00000000000000000000000000000000000000000000000000000000081526004016113a39061556f565b60405180910390fd5b600d5f8281526020019081526020015f2060040154341015611403576040517f08c379a00000000000000000000000000000000000000000000000000000000081526004016113fa906155d7565b60405180910390fd5b5f6103e8600a54600d5f8581526020019081526020015f206004015461142991906155f5565b6114339190615663565b9050600d5f8381526020019081526020015f206002015f9054906101000a900473ffffffffffffffffffffffffffffffffffffffff1673ffffffffffffffffffffffffffffffffffffffff166108fc823461148e9190615693565b90811502906040515f60405180830381858888f193505050501580156114b6573d5f803e3d5ffd5b50600c5f9054906101000a900473ffffffffffffffffffffffffffffffffffffffff1673ffffffffffffffffffffffffffffffffffffffff166108fc8290811502906040515f60405180830381858888f1935050505015801561151b573d5f803e3d5ffd5b5033600d5f8481526020019081526020015f206003015f6101000a81548173ffffffffffffffffffffffffffffffffffffffff021916908373ffffffffffffffffffffffffffffffffffffffff16021790555033600d5f8481526020019081526020015f206002015f6101000a81548173ffffffffffffffffffffffffffffffffffffffff021916908373ffffffffffffffffffffffffffffffffffffffff1602179055506115cb3033846130ed565b817f150ffca547cf855e7fcf5daa82e41c6523b5fb2c8b1309bbb6cf2f87c6ae5a31600d5f8581526020019081526020015f206002015f9054906101000a900473ffffffffffffffffffffffffffffffffffffffff1633600d5f8781526020019081526020015f206004015460405161164693929190615721565b60405180910390a25050565b5f61165c82612e0a565b9050919050565b5f600d5f8481526020019081526020015f205f0154036116b8576040517f08c379a00000000000000000000000000000000000000000000000000000000081526004016116af906153ea565b60405180910390fd5b600d5f8381526020019081526020015f2060070181908060018154018082558091505060019003905f5260205f20015f9091909190915090816116fb91906158d8565b505050565b5f8073ffffffffffffffffffffffffffffffffffffffff168273ffffffffffffffffffffffffffffffffffffffff1603611771575f6040517f89c62b6400000000000000000000000000000000000000000000000000000000815260040161176891906146ac565b60405180910390fd5b60035f8373ffffffffffffffffffffffffffffffffffffffff1673ffffffffffffffffffffffffffffffffffffffff1681526020019081526020015f20549050919050565b60606010805480602002602001604051908101604052809291908181526020015f905b82821015611881578382905f5260205f200180546117f690614f3c565b80601f016020809104026020016040519081016040528092919081815260200182805461182290614f3c565b801561186d5780601f106118445761010080835404028352916020019161186d565b820191905f5260205f20905b81548152906001019060200180831161185057829003601f168201915b5050505050815260200190600101906117d9565b50505050905090565b5f808251116118ce576040517f08c379a00000000000000000000000000000000000000000000000000000000081526004016118c5906159f1565b60405180910390fd5b5f845111611911576040517f08c379a000000000000000000000000000000000000000000000000000000000815260040161190890615a59565b60405180910390fd5b5f8311611953576040517f08c379a000000000000000000000000000000000000000000000000000000000815260040161194a90615ac1565b60405180910390fd5b6009543414611997576040517f08c379a000000000000000000000000000000000000000000000000000000000815260040161198e90615b4f565b60405180910390fd5b600c5f9054906101000a900473ffffffffffffffffffffffffffffffffffffffff1673ffffffffffffffffffffffffffffffffffffffff166108fc60095490811502906040515f60405180830381858888f193505050501580156119fd573d5f803e3d5ffd5b50611a086007613255565b5f611a136007612d1d565b9050611a1f3382613269565b611a29818661335c565b600f83604051611a399190614fa6565b90815260200160405180910390205f9054906101000a900460ff16611a93576040517f08c379a0000000000000000000000000000000000000000000000000000000008152600401611a8a9061515b565b60405180910390fd5b611a9d81846133b6565b15611add576040517f08c379a0000000000000000000000000000000000000000000000000000000008152600401611ad490615bdd565b60405180910390fd5b611ae98185858861344c565b809150509392505050565b606060018054611b0390614f3c565b80601f0160208091040260200160405190810160405280929190818152602001828054611b2f90614f3c565b8015611b7a5780601f10611b5157610100808354040283529160200191611b7a565b820191905f5260205f20905b815481529060010190602001808311611b5d57829003601f168201915b5050505050905090565b5f805f90505f600190505b611b996007612d1d565b8111611c0457600f600d5f8381526020019081526020015f20600601604051611bc2919061520b565b90815260200160405180910390205f9054906101000a900460ff1615611bf1578180611bed90615016565b9250505b8080611bfc90615016565b915050611b8f565b508091505090565b611c1e611c17612ec9565b83836136f2565b5050565b600e602052805f5260405f205f91509050805f018054611c4190614f3c565b80601f0160208091040260200160405190810160405280929190818152602001828054611c6d90614f3c565b8015611cb85780601f10611c8f57610100808354040283529160200191611cb8565b820191905f5260205f20905b815481529060010190602001808311611c9b57829003601f168201915b505050505090806001015f9054906101000a900460ff1690806002018054611cdf90614f3c565b80601f0160208091040260200160405190810160405280929190818152602001828054611d0b90614f3c565b8015611d565780601f10611d2d57610100808354040283529160200191611d56565b820191905f5260205f20905b815481529060010190602001808311611d3957829003601f168201915b505050505090806003018054611d6b90614f3c565b80601f0160208091040260200160405190810160405280929190818152602001828054611d9790614f3c565b8015611de25780601f10611db957610100808354040283529160200191611de2565b820191905f5260205f20905b815481529060010190602001808311611dc557829003601f168201915b505050505090806004018054611df790614f3c565b80601f0160208091040260200160405190810160405280929190818152602001828054611e2390614f3c565b8015611e6e5780601f10611e4557610100808354040283529160200191611e6e565b820191905f5260205f20905b815481529060010190602001808311611e5157829003601f168201915b5050505050908060050154905086565b5f600d5f8381526020019081526020015f205f015403611ed3576040517f08c379a0000000000000000000000000000000000000000000000000000000008152600401611eca906153ea565b60405180910390fd5b611edc816112b2565b15611f1c576040517f08c379a0000000000000000000000000000000000000000000000000000000008152600401611f1390615478565b60405180910390fd5b600d5f8281526020019081526020015f206009015f815480929190611f4090615016565b9190505550807f3e92b80b10e08c7af873b630b9789e2185d397ebfd2ef852e410f7da08a21bf3335f604051611f77929190615496565b60405180910390a250565b6060600f82604051611f949190614fa6565b90815260200160405180910390205f9054906101000a900460ff168015611fbb57505f8251115b61200d575f67ffffffffffffffff811115611fd957611fd8614735565b5b6040519080825280602002602001820160405280156120075781602001602082028036833780820191505090505b50612017565b6120168261385b565b5b9050919050565b612029848484610e2f565b61203584848484613a7f565b50505050565b6011602052805f5260405f205f91509050805461205790614f3c565b80601f016020809104026020016040519081016040528092919081815260200182805461208390614f3c565b80156120ce5780601f106120a5576101008083540402835291602001916120ce565b820191905f5260205f20905b8154815290600101906020018083116120b157829003601f168201915b505050505081565b600f818051602081018201805184825260208301602085012081835280955050505050505f915054906101000a900460ff1681565b60605f60608060605f8061211e88610f2e565b90505f600e5f8373ffffffffffffffffffffffffffffffffffffffff1673ffffffffffffffffffffffffffffffffffffffff1681526020019081526020015f209050805f01816001015f9054906101000a900460ff16826002018360030184600401856005015485805461219190614f3c565b80601f01602080910402602001604051908101604052809291908181526020018280546121bd90614f3c565b80156122085780601f106121df57610100808354040283529160200191612208565b820191905f5260205f20905b8154815290600101906020018083116121eb57829003601f168201915b5050505050955083805461221b90614f3c565b80601f016020809104026020016040519081016040528092919081815260200182805461224790614f3c565b80156122925780601f1061226957610100808354040283529160200191612292565b820191905f5260205f20905b81548152906001019060200180831161227557829003601f168201915b505050505093508280546122a590614f3c565b80601f01602080910402602001604051908101604052809291908181526020018280546122d190614f3c565b801561231c5780601f106122f35761010080835404028352916020019161231c565b820191905f5260205f20905b8154815290600101906020018083116122ff57829003601f168201915b5050505050925081805461232f90614f3c565b80601f016020809104026020016040519081016040528092919081815260200182805461235b90614f3c565b80156123a65780601f1061237d576101008083540402835291602001916123a6565b820191905f5260205f20905b81548152906001019060200180831161238957829003601f168201915b50505050509150975097509750975097509750505091939550919395565b60606123cf82612e0a565b505f60065f8481526020019081526020015f2080546123ed90614f3c565b80601f016020809104026020016040519081016040528092919081815260200182805461241990614f3c565b80156124645780601f1061243b57610100808354040283529160200191612464565b820191905f5260205f20905b81548152906001019060200180831161244757829003601f168201915b505050505090505f612474613c31565b90505f8151036124885781925050506124ca565b5f825111156124bc5780826040516020016124a4929190615bfb565b604051602081830303815290604052925050506124ca565b6124c584613c47565b925050505b919050565b601281815481106124de575f80fd5b905f5260205f20015f915054906101000a900473ffffffffffffffffffffffffffffffffffffffff1681565b60605f805f806060805f805f805f80600d5f8f81526020019081526020015f209050806007018160080154826009015483600a015f9054906101000a900460ff1684600b015485600c0186600101875f0154886002015f9054906101000a900473ffffffffffffffffffffffffffffffffffffffff16896003015f9054906101000a900473ffffffffffffffffffffffffffffffffffffffff168a600401548b6005015f9054906101000a900460ff168b805480602002602001604051908101604052809291908181526020015f905b82821015612682578382905f5260205f200180546125f790614f3c565b80601f016020809104026020016040519081016040528092919081815260200182805461262390614f3c565b801561266e5780601f106126455761010080835404028352916020019161266e565b820191905f5260205f20905b81548152906001019060200180831161265157829003601f168201915b5050505050815260200190600101906125da565b505050509b5086805461269490614f3c565b80601f01602080910402602001604051908101604052809291908181526020018280546126c090614f3c565b801561270b5780601f106126e25761010080835404028352916020019161270b565b820191905f5260205f20905b8154815290600101906020018083116126ee57829003601f168201915b5050505050965085805461271e90614f3c565b80601f016020809104026020016040519081016040528092919081815260200182805461274a90614f3c565b80156127955780601f1061276c57610100808354040283529160200191612795565b820191905f5260205f20905b81548152906001019060200180831161277857829003601f168201915b505050505095509c509c509c509c509c509c509c509c509c509c509c509c505091939597999b5091939597999b565b5f60055f8473ffffffffffffffffffffffffffffffffffffffff1673ffffffffffffffffffffffffffffffffffffffff1681526020019081526020015f205f8373ffffffffffffffffffffffffffffffffffffffff1673ffffffffffffffffffffffffffffffffffffffff1681526020019081526020015f205f9054906101000a900460ff16905092915050565b60605f61285f6007612d1d565b67ffffffffffffffff81111561287857612877614735565b5b6040519080825280602002602001820160405280156128a65781602001602082028036833780820191505090505b5090505f80600190505b6128ba6007612d1d565b811161297b573373ffffffffffffffffffffffffffffffffffffffff16600d5f8381526020019081526020015f206002015f9054906101000a900473ffffffffffffffffffffffffffffffffffffffff1673ffffffffffffffffffffffffffffffffffffffff160361296857600d5f8281526020019081526020015f205f015483838151811061294d5761294c614fbc565b5b602002602001018181525050818061296490615016565b9250505b808061297390615016565b9150506128b0565b50808252819250505090565b5f600e5f3373ffffffffffffffffffffffffffffffffffffffff1673ffffffffffffffffffffffffffffffffffffffff1681526020019081526020015f205f0180546129d290614f3c565b905014612a14576040517f08c379a0000000000000000000000000000000000000000000000000000000008152600401612a0b90615c68565b60405180910390fd5b6040518060c00160405280868152602001851515815260200185612a465760405180602001604052805f815250612a48565b845b815260200185612a665760405180602001604052805f815250612a68565b835b815260200185612a865760405180602001604052805f815250612a88565b825b81526020015f815250600e5f3373ffffffffffffffffffffffffffffffffffffffff1673ffffffffffffffffffffffffffffffffffffffff1681526020019081526020015f205f820151815f019081612ae191906158d8565b506020820151816001015f6101000a81548160ff0219169083151502179055506040820151816002019081612b1691906158d8565b506060820151816003019081612b2c91906158d8565b506080820151816004019081612b4291906158d8565b5060a082015181600501559050508260115f3373ffffffffffffffffffffffffffffffffffffffff1673ffffffffffffffffffffffffffffffffffffffff1681526020019081526020015f209081612b9a91906158d8565b50601233908060018154018082558091505060019003905f5260205f20015f9091909190916101000a81548173ffffffffffffffffffffffffffffffffffffffff021916908373ffffffffffffffffffffffffffffffffffffffff160217905550838015612c305750600f83604051612c139190614fa6565b90815260200160405180910390205f9054906101000a900460ff16155b15612cd5576001600f84604051612c479190614fa6565b90815260200160405180910390205f6101000a81548160ff021916908315150217905550601083908060018154018082558091505060019003905f5260205f20015f909190919091509081612c9c91906158d8565b507f724dd4cd2e9166c5e23b019f09022009d1a014361e898adfd0fe39ef70a1157b83604051612ccc91906145ef565b60405180910390a15b7f93c4ec27aa5f4b6352cc738eeecd83248c5927d0be45f4e3eb832ec11bf40d3f853386868686604051612d0e96959493929190615c86565b60405180910390a15050505050565b5f815f01549050919050565b5f7f80ac58cd000000000000000000000000000000000000000000000000000000007bffffffffffffffffffffffffffffffffffffffffffffffffffffffff1916827bffffffffffffffffffffffffffffffffffffffffffffffffffffffff19161480612df357507f5b5e139f000000000000000000000000000000000000000000000000000000007bffffffffffffffffffffffffffffffffffffffffffffffffffffffff1916827bffffffffffffffffffffffffffffffffffffffffffffffffffffffff1916145b80612e035750612e0282613cad565b5b9050919050565b5f80612e1583613d16565b90505f73ffffffffffffffffffffffffffffffffffffffff168173ffffffffffffffffffffffffffffffffffffffff1603612e8757826040517f7e273289000000000000000000000000000000000000000000000000000000008152600401612e7e9190614984565b60405180910390fd5b80915050919050565b5f60045f8381526020019081526020015f205f9054906101000a900473ffffffffffffffffffffffffffffffffffffffff169050919050565b5f33905090565b612edd8383836001613d4f565b505050565b5f80612eed84613d16565b90505f73ffffffffffffffffffffffffffffffffffffffff168373ffffffffffffffffffffffffffffffffffffffff1614612f2e57612f2d818486613f0e565b5b5f73ffffffffffffffffffffffffffffffffffffffff168173ffffffffffffffffffffffffffffffffffffffff1614612fb957612f6d5f855f80613d4f565b600160035f8373ffffffffffffffffffffffffffffffffffffffff1673ffffffffffffffffffffffffffffffffffffffff1681526020019081526020015f205f82825403925050819055505b5f73ffffffffffffffffffffffffffffffffffffffff168573ffffffffffffffffffffffffffffffffffffffff161461303857600160035f8773ffffffffffffffffffffffffffffffffffffffff1673ffffffffffffffffffffffffffffffffffffffff1681526020019081526020015f205f82825401925050819055505b8460025f8681526020019081526020015f205f6101000a81548173ffffffffffffffffffffffffffffffffffffffff021916908373ffffffffffffffffffffffffffffffffffffffff160217905550838573ffffffffffffffffffffffffffffffffffffffff168273ffffffffffffffffffffffffffffffffffffffff167fddf252ad1be2c89b69c2b068fc378daa952ba7f163c4a11628f55a4df523b3ef60405160405180910390a4809150509392505050565b5f73ffffffffffffffffffffffffffffffffffffffff168273ffffffffffffffffffffffffffffffffffffffff160361315d575f6040517f64a0ae9200000000000000000000000000000000000000000000000000000000815260040161315491906146ac565b60405180910390fd5b5f61316983835f612ee2565b90505f73ffffffffffffffffffffffffffffffffffffffff168173ffffffffffffffffffffffffffffffffffffffff16036131db57816040517f7e2732890000000000000000000000000000000000000000000000000000000081526004016131d29190614984565b60405180910390fd5b8373ffffffffffffffffffffffffffffffffffffffff168173ffffffffffffffffffffffffffffffffffffffff161461324f578382826040517f64283d7b000000000000000000000000000000000000000000000000000000008152600401613246939291906152dd565b60405180910390fd5b50505050565b6001815f015f828254019250508190555050565b5f73ffffffffffffffffffffffffffffffffffffffff168273ffffffffffffffffffffffffffffffffffffffff16036132d9575f6040517f64a0ae920000000000000000000000000000000000000000000000000000000081526004016132d091906146ac565b60405180910390fd5b5f6132e583835f612ee2565b90505f73ffffffffffffffffffffffffffffffffffffffff168173ffffffffffffffffffffffffffffffffffffffff1614613357575f6040517f73c6ac6e00000000000000000000000000000000000000000000000000000000815260040161334e91906146ac565b60405180910390fd5b505050565b8060065f8481526020019081526020015f20908161337a91906158d8565b507ff8e1a15aba9398e019f0b49df1a4fde98ee17ae345cb5f6b5e2c27f5033e8ce7826040516133aa9190614984565b60405180910390a15050565b5f80600d5f8581526020019081526020015f2060060180546133d790614f3c565b90501180156134445750816040516020016133f29190614fa6565b60405160208183030381529060405280519060200120600d5f8581526020019081526020015f2060060160405160200161342c919061520b565b60405160208183030381529060405280519060200120145b905092915050565b604051806101a001604052808581526020018281526020013373ffffffffffffffffffffffffffffffffffffffff1681526020013373ffffffffffffffffffffffffffffffffffffffff1681526020018481526020015f151581526020018381526020015f67ffffffffffffffff8111156134ca576134c9614735565b5b6040519080825280602002602001820160405280156134fd57816020015b60608152602001906001900390816134e85790505b5081526020015f81526020015f81526020015f1515815260200142815260200160405180602001604052805f815250815250600d5f8681526020019081526020015f205f820151815f0155602082015181600101908161355d91906158d8565b506040820151816002015f6101000a81548173ffffffffffffffffffffffffffffffffffffffff021916908373ffffffffffffffffffffffffffffffffffffffff1602179055506060820151816003015f6101000a81548173ffffffffffffffffffffffffffffffffffffffff021916908373ffffffffffffffffffffffffffffffffffffffff1602179055506080820151816004015560a0820151816005015f6101000a81548160ff02191690831515021790555060c082015181600601908161362891906158d8565b5060e08201518160070190805190602001906136459291906142ac565b506101008201518160080155610120820151816009015561014082015181600a015f6101000a81548160ff02191690831515021790555061016082015181600b015561018082015181600c01908161369d91906158d8565b509050506136ac3330866130ed565b837fddaeb01fb1ddce9789e64660541353c5a90fdd3e87ad074757173128396df0213330865f876040516136e4959493929190615d01565b60405180910390a250505050565b5f73ffffffffffffffffffffffffffffffffffffffff168273ffffffffffffffffffffffffffffffffffffffff160361376257816040517f5b08ba1800000000000000000000000000000000000000000000000000000000815260040161375991906146ac565b60405180910390fd5b8060055f8573ffffffffffffffffffffffffffffffffffffffff1673ffffffffffffffffffffffffffffffffffffffff1681526020019081526020015f205f8473ffffffffffffffffffffffffffffffffffffffff1673ffffffffffffffffffffffffffffffffffffffff1681526020019081526020015f205f6101000a81548160ff0219169083151502179055508173ffffffffffffffffffffffffffffffffffffffff168373ffffffffffffffffffffffffffffffffffffffff167f17307eab39ab6107e8899845ad3d59bd9653f200f220920489ca2b5937696c318360405161384e919061458e565b60405180910390a3505050565b6060805f80600190505b61386f6007612d1d565b8111613929575f600d5f8381526020019081526020015f20600601805461389590614f3c565b90501180156139025750846040516020016138b09190614fa6565b60405160208183030381529060405280519060200120600d5f8381526020019081526020015f206006016040516020016138ea919061520b565b60405160208183030381529060405280519060200120145b1561391657818061391290615016565b9250505b808061392190615016565b915050613865565b508067ffffffffffffffff81111561394457613943614735565b5b6040519080825280602002602001820160405280156139725781602001602082028036833780820191505090505b5091505f80600190505b6139866007612d1d565b8111613a73575f600d5f8381526020019081526020015f2060060180546139ac90614f3c565b9050118015613a195750856040516020016139c79190614fa6565b60405160208183030381529060405280519060200120600d5f8381526020019081526020015f20600601604051602001613a01919061520b565b60405160208183030381529060405280519060200120145b15613a6057600d5f8281526020019081526020015f205f0154848381518110613a4557613a44614fbc565b5b6020026020010181815250508180613a5c90615016565b9250505b8080613a6b90615016565b91505061397c565b50829350505050919050565b5f8373ffffffffffffffffffffffffffffffffffffffff163b1115613c2b578273ffffffffffffffffffffffffffffffffffffffff1663150b7a02613ac2612ec9565b8685856040518563ffffffff1660e01b8152600401613ae49493929190615dab565b6020604051808303815f875af1925050508015613b1f57506040513d601f19601f82011682018060405250810190613b1c9190615e09565b60015b613ba0573d805f8114613b4d576040519150601f19603f3d011682016040523d82523d5f602084013e613b52565b606091505b505f815103613b9857836040517f64a0ae92000000000000000000000000000000000000000000000000000000008152600401613b8f91906146ac565b60405180910390fd5b805181602001fd5b63150b7a0260e01b7bffffffffffffffffffffffffffffffffffffffffffffffffffffffff1916817bffffffffffffffffffffffffffffffffffffffffffffffffffffffff191614613c2957836040517f64a0ae92000000000000000000000000000000000000000000000000000000008152600401613c2091906146ac565b60405180910390fd5b505b50505050565b606060405180602001604052805f815250905090565b6060613c5282612e0a565b505f613c5c613c31565b90505f815111613c7a5760405180602001604052805f815250613ca5565b80613c8484613fd1565b604051602001613c95929190615bfb565b6040516020818303038152906040525b915050919050565b5f7f01ffc9a7000000000000000000000000000000000000000000000000000000007bffffffffffffffffffffffffffffffffffffffffffffffffffffffff1916827bffffffffffffffffffffffffffffffffffffffffffffffffffffffff1916149050919050565b5f60025f8381526020019081526020015f205f9054906101000a900473ffffffffffffffffffffffffffffffffffffffff169050919050565b8080613d8757505f73ffffffffffffffffffffffffffffffffffffffff168273ffffffffffffffffffffffffffffffffffffffff1614155b15613eb9575f613d9684612e0a565b90505f73ffffffffffffffffffffffffffffffffffffffff168373ffffffffffffffffffffffffffffffffffffffff1614158015613e0057508273ffffffffffffffffffffffffffffffffffffffff168173ffffffffffffffffffffffffffffffffffffffff1614155b8015613e135750613e1181846127c4565b155b15613e5557826040517fa9fbf51f000000000000000000000000000000000000000000000000000000008152600401613e4c91906146ac565b60405180910390fd5b8115613eb757838573ffffffffffffffffffffffffffffffffffffffff168273ffffffffffffffffffffffffffffffffffffffff167f8c5be1e5ebec7d5bd14f71427d1e84f3dd0314c0f7b2291e5b200ac8c7c3b92560405160405180910390a45b505b8360045f8581526020019081526020015f205f6101000a81548173ffffffffffffffffffffffffffffffffffffffff021916908373ffffffffffffffffffffffffffffffffffffffff16021790555050505050565b613f1983838361409b565b613fcc575f73ffffffffffffffffffffffffffffffffffffffff168373ffffffffffffffffffffffffffffffffffffffff1603613f8d57806040517f7e273289000000000000000000000000000000000000000000000000000000008152600401613f849190614984565b60405180910390fd5b81816040517f177e802f000000000000000000000000000000000000000000000000000000008152600401613fc3929190615e34565b60405180910390fd5b505050565b60605f6001613fdf8461415b565b0190505f8167ffffffffffffffff811115613ffd57613ffc614735565b5b6040519080825280601f01601f19166020018201604052801561402f5781602001600182028036833780820191505090505b5090505f82602001820190505b600115614090578080600190039150507f3031323334353637383961626364656600000000000000000000000000000000600a86061a8153600a858161408557614084615636565b5b0494505f850361403c575b819350505050919050565b5f8073ffffffffffffffffffffffffffffffffffffffff168373ffffffffffffffffffffffffffffffffffffffff161415801561415257508273ffffffffffffffffffffffffffffffffffffffff168473ffffffffffffffffffffffffffffffffffffffff161480614113575061411284846127c4565b5b8061415157508273ffffffffffffffffffffffffffffffffffffffff1661413983612e90565b73ffffffffffffffffffffffffffffffffffffffff16145b5b90509392505050565b5f805f90507a184f03e93ff9f4daa797ed6e38ed64bf6a1f01000000000000000083106141b7577a184f03e93ff9f4daa797ed6e38ed64bf6a1f01000000000000000083816141ad576141ac615636565b5b0492506040810190505b6d04ee2d6d415b85acef810000000083106141f4576d04ee2d6d415b85acef810000000083816141ea576141e9615636565b5b0492506020810190505b662386f26fc10000831061422357662386f26fc10000838161421957614218615636565b5b0492506010810190505b6305f5e100831061424c576305f5e100838161424257614241615636565b5b0492506008810190505b612710831061427157612710838161426757614266615636565b5b0492506004810190505b60648310614294576064838161428a57614289615636565b5b0492506002810190505b600a83106142a3576001810190505b80915050919050565b828054828255905f5260205f209081019282156142f2579160200282015b828111156142f15782518290816142e191906158d8565b50916020019190600101906142ca565b5b5090506142ff9190614303565b5090565b5b80821115614322575f81816143199190614326565b50600101614304565b5090565b50805461433290614f3c565b5f825580601f106143435750614360565b601f0160209004905f5260205f209081019061435f9190614363565b5b50565b5b8082111561437a575f815f905550600101614364565b5090565b5f81519050919050565b5f82825260208201905092915050565b5f819050602082019050919050565b5f81519050919050565b5f82825260208201905092915050565b5f5b838110156143de5780820151818401526020810190506143c3565b5f8484015250505050565b5f601f19601f8301169050919050565b5f614403826143a7565b61440d81856143b1565b935061441d8185602086016143c1565b614426816143e9565b840191505092915050565b5f61443c83836143f9565b905092915050565b5f602082019050919050565b5f61445a8261437e565b6144648185614388565b93508360208202850161447685614398565b805f5b858110156144b157848403895281516144928582614431565b945061449d83614444565b925060208a01995050600181019050614479565b50829750879550505050505092915050565b5f6020820190508181035f8301526144db8184614450565b905092915050565b5f604051905090565b5f80fd5b5f80fd5b5f7fffffffff0000000000000000000000000000000000000000000000000000000082169050919050565b614528816144f4565b8114614532575f80fd5b50565b5f813590506145438161451f565b92915050565b5f6020828403121561455e5761455d6144ec565b5b5f61456b84828501614535565b91505092915050565b5f8115159050919050565b61458881614574565b82525050565b5f6020820190506145a15f83018461457f565b92915050565b5f82825260208201905092915050565b5f6145c1826143a7565b6145cb81856145a7565b93506145db8185602086016143c1565b6145e4816143e9565b840191505092915050565b5f6020820190508181035f83015261460781846145b7565b905092915050565b5f819050919050565b6146218161460f565b811461462b575f80fd5b50565b5f8135905061463c81614618565b92915050565b5f60208284031215614657576146566144ec565b5b5f6146648482850161462e565b91505092915050565b5f73ffffffffffffffffffffffffffffffffffffffff82169050919050565b5f6146968261466d565b9050919050565b6146a68161468c565b82525050565b5f6020820190506146bf5f83018461469d565b92915050565b6146ce8161468c565b81146146d8575f80fd5b50565b5f813590506146e9816146c5565b92915050565b5f8060408385031215614705576147046144ec565b5b5f614712858286016146db565b92505060206147238582860161462e565b9150509250929050565b5f80fd5b5f80fd5b7f4e487b71000000000000000000000000000000000000000000000000000000005f52604160045260245ffd5b61476b826143e9565b810181811067ffffffffffffffff8211171561478a57614789614735565b5b80604052505050565b5f61479c6144e3565b90506147a88282614762565b919050565b5f67ffffffffffffffff8211156147c7576147c6614735565b5b6147d0826143e9565b9050602081019050919050565b828183375f83830152505050565b5f6147fd6147f8846147ad565b614793565b90508281526020810184848401111561481957614818614731565b5b6148248482856147dd565b509392505050565b5f82601f8301126148405761483f61472d565b5b81356148508482602086016147eb565b91505092915050565b5f806040838503121561486f5761486e6144ec565b5b5f61487c8582860161462e565b925050602083013567ffffffffffffffff81111561489d5761489c6144f0565b5b6148a98582860161482c565b9150509250929050565b5f805f606084860312156148ca576148c96144ec565b5b5f6148d7868287016146db565b93505060206148e8868287016146db565b92505060406148f98682870161462e565b9150509250925092565b5f60208284031215614918576149176144ec565b5b5f82013567ffffffffffffffff811115614935576149346144f0565b5b6149418482850161482c565b91505092915050565b5f6020828403121561495f5761495e6144ec565b5b5f61496c848285016146db565b91505092915050565b61497e8161460f565b82525050565b5f6020820190506149975f830184614975565b92915050565b5f805f606084860312156149b4576149b36144ec565b5b5f84013567ffffffffffffffff8111156149d1576149d06144f0565b5b6149dd8682870161482c565b93505060206149ee8682870161462e565b925050604084013567ffffffffffffffff811115614a0f57614a0e6144f0565b5b614a1b8682870161482c565b9150509250925092565b614a2e81614574565b8114614a38575f80fd5b50565b5f81359050614a4981614a25565b92915050565b5f8060408385031215614a6557614a646144ec565b5b5f614a72858286016146db565b9250506020614a8385828601614a3b565b9150509250929050565b5f60c0820190508181035f830152614aa581896145b7565b9050614ab4602083018861457f565b8181036040830152614ac681876145b7565b90508181036060830152614ada81866145b7565b90508181036080830152614aee81856145b7565b9050614afd60a0830184614975565b979650505050505050565b5f81519050919050565b5f82825260208201905092915050565b5f819050602082019050919050565b614b3a8161460f565b82525050565b5f614b4b8383614b31565b60208301905092915050565b5f602082019050919050565b5f614b6d82614b08565b614b778185614b12565b9350614b8283614b22565b805f5b83811015614bb2578151614b998882614b40565b9750614ba483614b57565b925050600181019050614b85565b5085935050505092915050565b5f6020820190508181035f830152614bd78184614b63565b905092915050565b5f67ffffffffffffffff821115614bf957614bf8614735565b5b614c02826143e9565b9050602081019050919050565b5f614c21614c1c84614bdf565b614793565b905082815260208101848484011115614c3d57614c3c614731565b5b614c488482856147dd565b509392505050565b5f82601f830112614c6457614c6361472d565b5b8135614c74848260208601614c0f565b91505092915050565b5f805f8060808587031215614c9557614c946144ec565b5b5f614ca2878288016146db565b9450506020614cb3878288016146db565b9350506040614cc48782880161462e565b925050606085013567ffffffffffffffff811115614ce557614ce46144f0565b5b614cf187828801614c50565b91505092959194509250565b5f614d078261466d565b9050919050565b614d1781614cfd565b82525050565b5f610180820190508181035f830152614d36818f614450565b9050614d45602083018e614975565b614d52604083018d614975565b614d5f606083018c61457f565b614d6c608083018b614975565b81810360a0830152614d7e818a6145b7565b905081810360c0830152614d9281896145b7565b9050614da160e0830188614975565b614daf610100830187614d0e565b614dbd610120830186614d0e565b614dcb610140830185614975565b614dd961016083018461457f565b9d9c50505050505050505050505050565b5f8060408385031215614e0057614dff6144ec565b5b5f614e0d858286016146db565b9250506020614e1e858286016146db565b9150509250929050565b5f805f805f60a08688031215614e4157614e406144ec565b5b5f86013567ffffffffffffffff811115614e5e57614e5d6144f0565b5b614e6a8882890161482c565b9550506020614e7b88828901614a3b565b945050604086013567ffffffffffffffff811115614e9c57614e9b6144f0565b5b614ea88882890161482c565b935050606086013567ffffffffffffffff811115614ec957614ec86144f0565b5b614ed58882890161482c565b925050608086013567ffffffffffffffff811115614ef657614ef56144f0565b5b614f028882890161482c565b9150509295509295909350565b7f4e487b71000000000000000000000000000000000000000000000000000000005f52602260045260245ffd5b5f6002820490506001821680614f5357607f821691505b602082108103614f6657614f65614f0f565b5b50919050565b5f81905092915050565b5f614f80826143a7565b614f8a8185614f6c565b9350614f9a8185602086016143c1565b80840191505092915050565b5f614fb18284614f76565b915081905092915050565b7f4e487b71000000000000000000000000000000000000000000000000000000005f52603260045260245ffd5b7f4e487b71000000000000000000000000000000000000000000000000000000005f52601160045260245ffd5b5f6150208261460f565b91507fffffffffffffffffffffffffffffffffffffffffffffffffffffffffffffffff820361505257615051614fe9565b5b600182019050919050565b7f596f7520617265206e6f7420746865206f776e6572206f662074686973204e465f8201527f5400000000000000000000000000000000000000000000000000000000000000602082015250565b5f6150b76021836145a7565b91506150c28261505d565b604082019050919050565b5f6020820190508181035f8301526150e4816150ab565b9050919050565b7f427573696e65737320646f6d61696e206973206e6f74207265676973746572655f8201527f6400000000000000000000000000000000000000000000000000000000000000602082015250565b5f6151456021836145a7565b9150615150826150eb565b604082019050919050565b5f6020820190508181035f83015261517281615139565b9050919050565b5f819050815f5260205f209050919050565b5f815461519781614f3c565b6151a18186614f6c565b9450600182165f81146151bb57600181146151d057615202565b60ff1983168652811515820286019350615202565b6151d985615179565b5f5b838110156151fa578154818901526001820191506020810190506151db565b838801955050505b50505092915050565b5f615216828461518b565b915081905092915050565b7f4e4654206973206e6f74206173736f63696174656420776974682074686973205f8201527f646f6d61696e0000000000000000000000000000000000000000000000000000602082015250565b5f61527b6026836145a7565b915061528682615221565b604082019050919050565b5f6020820190508181035f8301526152a88161526f565b9050919050565b5f6040820190506152c25f830185614975565b81810360208301526152d481846145b7565b90509392505050565b5f6060820190506152f05f83018661469d565b6152fd6020830185614975565b61530a604083018461469d565b949350505050565b7f4e6f207573657220666f756e6420666f722074686520676976656e20627573695f8201527f6e65737320646f6d61696e000000000000000000000000000000000000000000602082015250565b5f61536c602b836145a7565b915061537782615312565b604082019050919050565b5f6020820190508181035f83015261539981615360565b9050919050565b7f52657669657720646f6573206e6f7420657869737400000000000000000000005f82015250565b5f6153d46015836145a7565b91506153df826153a0565b602082019050919050565b5f6020820190508181035f830152615401816153c8565b9050919050565b7f557365722068617320616c726561647920766f74656420666f722074686973205f8201527f7265766965770000000000000000000000000000000000000000000000000000602082015250565b5f6154626026836145a7565b915061546d82615408565b604082019050919050565b5f6020820190508181035f83015261548f81615456565b9050919050565b5f6040820190506154a95f83018561469d565b6154b6602083018461457f565b9392505050565b7f4e465420646f6573206e6f7420657869737400000000000000000000000000005f82015250565b5f6154f16012836145a7565b91506154fc826154bd565b602082019050919050565b5f6020820190508181035f83015261551e816154e5565b9050919050565b7f4e465420616c726561647920736f6c64000000000000000000000000000000005f82015250565b5f6155596010836145a7565b915061556482615525565b602082019050919050565b5f6020820190508181035f8301526155868161554d565b9050919050565b7f496e73756666696369656e742066756e647300000000000000000000000000005f82015250565b5f6155c16012836145a7565b91506155cc8261558d565b602082019050919050565b5f6020820190508181035f8301526155ee816155b5565b9050919050565b5f6155ff8261460f565b915061560a8361460f565b92508282026156188161460f565b9150828204841483151761562f5761562e614fe9565b5b5092915050565b7f4e487b71000000000000000000000000000000000000000000000000000000005f52601260045260245ffd5b5f61566d8261460f565b91506156788361460f565b92508261568857615687615636565b5b828204905092915050565b5f61569d8261460f565b91506156a88361460f565b92508282039050818111156156c0576156bf614fe9565b5b92915050565b5f819050919050565b5f6156e96156e46156df8461466d565b6156c6565b61466d565b9050919050565b5f6156fa826156cf565b9050919050565b5f61570b826156f0565b9050919050565b61571b81615701565b82525050565b5f6060820190506157345f830186615712565b615741602083018561469d565b61574e6040830184614975565b949350505050565b5f6020601f8301049050919050565b5f82821b905092915050565b5f600883026157a07fffffffffffffffffffffffffffffffffffffffffffffffffffffffffffffffff82615765565b6157aa8683615765565b95508019841693508086168417925050509392505050565b5f6157dc6157d76157d28461460f565b6156c6565b61460f565b9050919050565b5f819050919050565b6157f5836157c2565b615809615801826157e3565b848454615771565b825550505050565b5f90565b61581d615811565b6158288184846157ec565b505050565b5b8181101561584b576158405f82615815565b60018101905061582e565b5050565b601f8211156158905761586181615179565b61586a84615756565b81016020851015615879578190505b61588d61588585615756565b83018261582d565b50505b505050565b5f82821c905092915050565b5f6158b05f1984600802615895565b1980831691505092915050565b5f6158c883836158a1565b9150826002028217905092915050565b6158e1826143a7565b67ffffffffffffffff8111156158fa576158f9614735565b5b6159048254614f3c565b61590f82828561584f565b5f60209050601f831160018114615940575f841561592e578287015190505b61593885826158bd565b86555061599f565b601f19841661594e86615179565b5f5b8281101561597557848901518255600182019150602085019450602081019050615950565b86831015615992578489015161598e601f8916826158a1565b8355505b6001600288020188555050505b505050505050565b7f427573696e65737320646f6d61696e20697320726571756972656400000000005f82015250565b5f6159db601b836145a7565b91506159e6826159a7565b602082019050919050565b5f6020820190508181035f830152615a08816159cf565b9050919050565b7f546f6b656e2055524920697320726571756972656400000000000000000000005f82015250565b5f615a436015836145a7565b9150615a4e82615a0f565b602082019050919050565b5f6020820190508181035f830152615a7081615a37565b9050919050565b7f5072696365206d757374206265206174206c65617374203100000000000000005f82015250565b5f615aab6018836145a7565b9150615ab682615a77565b602082019050919050565b5f6020820190508181035f830152615ad881615a9f565b9050919050565b7f5072696365206d75737420626520657175616c20746f206c697374696e6720705f8201527f7269636500000000000000000000000000000000000000000000000000000000602082015250565b5f615b396024836145a7565b9150615b4482615adf565b604082019050919050565b5f6020820190508181035f830152615b6681615b2d565b9050919050565b7f4e465420697320616c7265616479206173736f636961746564207769746820745f8201527f68697320646f6d61696e00000000000000000000000000000000000000000000602082015250565b5f615bc7602a836145a7565b9150615bd282615b6d565b604082019050919050565b5f6020820190508181035f830152615bf481615bbb565b9050919050565b5f615c068285614f76565b9150615c128284614f76565b91508190509392505050565b7f5573657220616c726561647920726567697374657265640000000000000000005f82015250565b5f615c526017836145a7565b9150615c5d82615c1e565b602082019050919050565b5f6020820190508181035f830152615c7f81615c46565b9050919050565b5f60c0820190508181035f830152615c9e81896145b7565b9050615cad602083018861469d565b615cba604083018761457f565b8181036060830152615ccc81866145b7565b90508181036080830152615ce081856145b7565b905081810360a0830152615cf481846145b7565b9050979650505050505050565b5f60a082019050615d145f83018861469d565b615d21602083018761469d565b615d2e6040830186614975565b615d3b606083018561457f565b8181036080830152615d4d81846145b7565b90509695505050505050565b5f81519050919050565b5f82825260208201905092915050565b5f615d7d82615d59565b615d878185615d63565b9350615d978185602086016143c1565b615da0816143e9565b840191505092915050565b5f608082019050615dbe5f83018761469d565b615dcb602083018661469d565b615dd86040830185614975565b8181036060830152615dea8184615d73565b905095945050505050565b5f81519050615e038161451f565b92915050565b5f60208284031215615e1e57615e1d6144ec565b5b5f615e2b84828501615df5565b91505092915050565b5f604082019050615e475f83018561469d565b615e546020830184614975565b939250505056fea26469706673582212203792179d610a0da72e3f744f262e125540eda5fc7e3929121d1936a1e059109c64736f6c63430008170033",
  "immutableReferences": {},
  "source": "// SPDX-License-Identifier: UNLICENSED\r\npragma solidity ^0.8.4;\r\npragma experimental ABIEncoderV2;\r\n\r\nimport \"@openzeppelin/contracts/utils/Counters.sol\";\r\nimport \"@openzeppelin/contracts/token/ERC721/extensions/ERC721URIStorage.sol\";\r\nimport \"@openzeppelin/contracts/token/ERC721/ERC721.sol\";\r\n\r\ncontract UserAndNFTMarketplace is ERC721URIStorage {\r\n    using Counters for Counters.Counter;\r\n\r\n    Counters.Counter private _tokenIds;\r\n    Counters.Counter private _itemsSold;\r\n\r\n    uint256 listingPrice = 0.001 ether;\r\n\r\n    uint256 ownerCommissionPercentage = 15;\r\n    uint256 creatorCommissionPercentage = 1000 - ownerCommissionPercentage;\r\n\r\n    address payable owner;\r\n\r\n    mapping(uint256 => MarketItem) private idToMarketItem;\r\n    mapping(address => User) public users;\r\n    mapping(string => bool) public registeredDomains;\r\n    string[] public registeredDomainsArray;\r\n    mapping(address => string) public AlluserDomians;\r\n    address[] public Allusers;\r\n\r\n    struct MarketItem {\r\n        uint256 tokenId;\r\n        string tokenURI;\r\n        address payable seller;\r\n        address payable owner;\r\n        uint256 price;\r\n        bool sold;\r\n        string businessDomain;\r\n        string[] comments;\r\n        uint256 upvotes;\r\n        uint256 downvotes;\r\n        bool moderated;\r\n        uint256 timestamp;\r\n        string category;\r\n        // Add other metadata fields as needed\r\n    }\r\n\r\n    struct User {\r\n        string username;\r\n        bool isBusiness;\r\n        string businessDomain;\r\n        string businessDescription;\r\n        string businessCategory;\r\n        uint256 reputation;\r\n        // Add other user details as needed\r\n    }\r\n\r\n    event MarketItemCreated(\r\n        uint256 indexed tokenId,\r\n        address seller,\r\n        address owner,\r\n        uint256 price,\r\n        bool sold,\r\n        string businessDomain\r\n    );\r\n\r\n    event UserRegistered(\r\n        string username,\r\n        address userAddress,\r\n        bool isBusiness,\r\n        string businessDomain,\r\n        string businessDescription,\r\n        string businessCategory\r\n    );\r\n    event NFTDelisted(uint256 tokenId, string businessDomain);\r\n\r\n    event ReviewVoted(uint256 indexed tokenId, address voter, bool isUpvote);\r\n    event DomainRegistered(string domain);\r\n    event MarketItemSold(\r\n        uint256 indexed tokenId,\r\n        address seller,\r\n        address buyer,\r\n        uint256 price\r\n    );\r\n\r\n    constructor() ERC721(\"Artbyte\", \"ART\") {\r\n        owner = payable(msg.sender);\r\n    }\r\n\r\n    function getOwnerShare(uint256 x) private view returns (uint256) {\r\n        return (x / 1000) * ownerCommissionPercentage;\r\n    }\r\n\r\n    function getCreatorShare(uint256 x) private view returns (uint256) {\r\n        return (x / 1000) * creatorCommissionPercentage;\r\n    }\r\n\r\n    function registerUser(\r\n        string memory _username,\r\n        bool _isBusiness,\r\n        string memory _businessDomain,\r\n        string memory _businessDescription,\r\n        string memory _businessCategory\r\n    ) public {\r\n        require(\r\n            bytes(users[msg.sender].username).length == 0,\r\n            \"User already registered\"\r\n        );\r\n\r\n        users[msg.sender] = User({\r\n            username: _username,\r\n            isBusiness: _isBusiness,\r\n            businessDomain: _isBusiness ? _businessDomain : \"\",\r\n            businessDescription: _isBusiness ? _businessDescription : \"\",\r\n            businessCategory: _isBusiness ? _businessCategory : \"\",\r\n            reputation: 0\r\n        });\r\n        AlluserDomians[msg.sender] = _businessDomain;\r\n        Allusers.push(msg.sender);\r\n        if (_isBusiness && !registeredDomains[_businessDomain]) {\r\n            // Set the business domain as registered during user registration\r\n            registeredDomains[_businessDomain] = true;\r\n            registeredDomainsArray.push(_businessDomain);\r\n            emit DomainRegistered(_businessDomain);\r\n        }\r\n\r\n        emit UserRegistered(\r\n            _username,\r\n            msg.sender,\r\n            _isBusiness,\r\n            _businessDomain,\r\n            _businessDescription,\r\n            _businessCategory\r\n        );\r\n    }\r\n\r\n    function getRegisteredDomains() public view returns (string[] memory) {\r\n        return registeredDomainsArray;\r\n    }\r\n\r\n    // function createReviewNFT(\r\n    //     string memory tokenURI,\r\n    //     uint256 price,\r\n    //     string memory businessDomain\r\n    // ) public payable returns (uint) {\r\n    //     require(\r\n    //         bytes(businessDomain).length > 0,\r\n    //         \"Business domain is required\"\r\n    //     );\r\n    //     require(bytes(tokenURI).length > 0, \"Token URI is required\");\r\n    //     require(price > 0, \"Price must be at least 1\");\r\n    //     // require(msg.value == listingPrice, \"Price must be equal to listing price\");\r\n\r\n    //     _tokenIds.increment();\r\n\r\n    //     uint256 newTokenId = _tokenIds.current();\r\n\r\n    //     _mint(msg.sender, newTokenId);\r\n    //     _setTokenURI(newTokenId, tokenURI);\r\n\r\n    //     // Check if the domain is registered before associating the NFT\r\n    //     require(\r\n    //         registeredDomains[businessDomain],\r\n    //         \"Business domain is not registered\"\r\n    //     );\r\n\r\n    //     // Check if the NFT is not already associated with this domain\r\n    //     require(\r\n    //         !isNFTAssociatedWithDomain(newTokenId, businessDomain),\r\n    //         \"NFT is already associated with this domain\"\r\n    //     );\r\n\r\n    //     createMarketItem(newTokenId, price, businessDomain, tokenURI);\r\n\r\n    //     return newTokenId;\r\n    // }\r\n    function createReviewNFT(\r\n        string memory tokenURI,\r\n        uint256 price,\r\n        string memory businessDomain\r\n    ) public payable returns (uint) {\r\n        require(\r\n            bytes(businessDomain).length > 0,\r\n            \"Business domain is required\"\r\n        );\r\n        require(bytes(tokenURI).length > 0, \"Token URI is required\");\r\n        require(price > 0, \"Price must be at least 1\");\r\n        // require(msg.value == listingPrice, \"Price must be equal to listing price\");\r\n        // Check if the sender has sent the exact listing price\r\n        require(\r\n            msg.value == listingPrice,\r\n            \"Price must be equal to listing price\"\r\n        );\r\n\r\n        // Transfer 0.025 ether to the owner of the contract\r\n        owner.transfer(listingPrice);\r\n        _tokenIds.increment();\r\n\r\n        uint256 newTokenId = _tokenIds.current();\r\n\r\n        _mint(msg.sender, newTokenId);\r\n        _setTokenURI(newTokenId, tokenURI);\r\n\r\n        // Check if the domain is registered before associating the NFT\r\n        require(\r\n            registeredDomains[businessDomain],\r\n            \"Business domain is not registered\"\r\n        );\r\n\r\n        // Check if the NFT is not already associated with this domain\r\n        require(\r\n            !isNFTAssociatedWithDomain(newTokenId, businessDomain),\r\n            \"NFT is already associated with this domain\"\r\n        );\r\n\r\n        createMarketItem(newTokenId, price, businessDomain, tokenURI);\r\n\r\n        return newTokenId;\r\n    }\r\n\r\n    function isNFTAssociatedWithDomain(\r\n        uint256 tokenId,\r\n        string memory businessDomain\r\n    ) private view returns (bool) {\r\n        return\r\n            bytes(idToMarketItem[tokenId].businessDomain).length > 0 &&\r\n            keccak256(\r\n                abi.encodePacked(idToMarketItem[tokenId].businessDomain)\r\n            ) ==\r\n            keccak256(abi.encodePacked(businessDomain));\r\n    }\r\n\r\n    function createMarketItem(\r\n        uint256 tokenId,\r\n        uint256 price,\r\n        string memory businessDomain,\r\n        string memory tokenURI\r\n    ) private {\r\n        idToMarketItem[tokenId] = MarketItem({\r\n            tokenId: tokenId,\r\n            tokenURI: tokenURI,\r\n            seller: payable(msg.sender),\r\n            owner: payable(msg.sender),\r\n            price: price,\r\n            sold: false,\r\n            businessDomain: businessDomain,\r\n            comments: new string[](0),\r\n            upvotes: 0,\r\n            downvotes: 0,\r\n            moderated: false,\r\n            timestamp: block.timestamp,\r\n            category: \"\"\r\n        });\r\n\r\n        _transfer(msg.sender, address(this), tokenId);\r\n\r\n        emit MarketItemCreated(\r\n            tokenId,\r\n            msg.sender,\r\n            address(this),\r\n            price,\r\n            false,\r\n            businessDomain\r\n        );\r\n    }\r\n\r\n    function fetchBusinessDomains() public view returns (string[] memory) {\r\n        uint count = getRegisteredDomainCount();\r\n        string[] memory businessDomains = new string[](count);\r\n        uint currentIndex = 0;\r\n\r\n        for (uint i = 1; i <= _tokenIds.current(); i++) {\r\n            string memory currentDomain = idToMarketItem[i].businessDomain;\r\n            if (\r\n                bytes(currentDomain).length > 0 &&\r\n                registeredDomains[currentDomain]\r\n            ) {\r\n                businessDomains[currentIndex] = currentDomain;\r\n                currentIndex++;\r\n            }\r\n        }\r\n\r\n        return businessDomains;\r\n    }\r\n\r\n    function getRegisteredDomainCount() public view returns (uint) {\r\n        uint count = 0;\r\n        for (uint i = 1; i <= _tokenIds.current(); i++) {\r\n            if (registeredDomains[idToMarketItem[i].businessDomain]) {\r\n                count++;\r\n            }\r\n        }\r\n        return count;\r\n    }\r\n\r\n    function fetchNFTsByDomain(\r\n        string memory businessDomain\r\n    ) public view returns (uint256[] memory) {\r\n        return\r\n            registeredDomains[businessDomain] &&\r\n                bytes(businessDomain).length > 0\r\n                ? getNFTsByDomain(businessDomain)\r\n                : new uint256[](0);\r\n    }\r\n\r\n    function getNFTsByDomain(\r\n        string memory businessDomain\r\n    ) private view returns (uint256[] memory) {\r\n        uint256[] memory nfts;\r\n        uint count = 0;\r\n\r\n        for (uint i = 1; i <= _tokenIds.current(); i++) {\r\n            if (\r\n                bytes(idToMarketItem[i].businessDomain).length > 0 &&\r\n                keccak256(abi.encodePacked(idToMarketItem[i].businessDomain)) ==\r\n                keccak256(abi.encodePacked(businessDomain))\r\n            ) {\r\n                count++;\r\n            }\r\n        }\r\n\r\n        nfts = new uint256[](count);\r\n        uint currentIndex = 0;\r\n\r\n        for (uint i = 1; i <= _tokenIds.current(); i++) {\r\n            if (\r\n                bytes(idToMarketItem[i].businessDomain).length > 0 &&\r\n                keccak256(abi.encodePacked(idToMarketItem[i].businessDomain)) ==\r\n                keccak256(abi.encodePacked(businessDomain))\r\n            ) {\r\n                nfts[currentIndex] = idToMarketItem[i].tokenId;\r\n                currentIndex++;\r\n            }\r\n        }\r\n\r\n        return nfts;\r\n    }\r\n\r\n    function fetchUserNFTs() public view returns (uint256[] memory) {\r\n        uint256[] memory userNFTs = new uint256[](_tokenIds.current());\r\n        uint256 userNFTCount = 0;\r\n\r\n        for (uint i = 1; i <= _tokenIds.current(); i++) {\r\n            if (idToMarketItem[i].seller == msg.sender) {\r\n                userNFTs[userNFTCount] = idToMarketItem[i].tokenId;\r\n                userNFTCount++;\r\n            }\r\n        }\r\n\r\n        assembly {\r\n            mstore(userNFTs, userNFTCount)\r\n        }\r\n\r\n        return userNFTs;\r\n    }\r\n\r\n    function upvoteReview(uint256 tokenId) public {\r\n        require(idToMarketItem[tokenId].tokenId != 0, \"Review does not exist\");\r\n        require(\r\n            !hasUserVoted(tokenId),\r\n            \"User has already voted for this review\"\r\n        );\r\n\r\n        idToMarketItem[tokenId].upvotes++;\r\n        emit ReviewVoted(tokenId, msg.sender, true);\r\n    }\r\n\r\n    function downvoteReview(uint256 tokenId) public {\r\n        require(idToMarketItem[tokenId].tokenId != 0, \"Review does not exist\");\r\n        require(\r\n            !hasUserVoted(tokenId),\r\n            \"User has already voted for this review\"\r\n        );\r\n\r\n        idToMarketItem[tokenId].downvotes++;\r\n        emit ReviewVoted(tokenId, msg.sender, false);\r\n    }\r\n\r\n    function getReviewDetails(\r\n        uint256 tokenId\r\n    )\r\n        public\r\n        view\r\n        returns (\r\n            string[] memory comments,\r\n            uint256 upvotes,\r\n            uint256 downvotes,\r\n            bool moderated,\r\n            uint256 timestamp,\r\n            string memory category,\r\n            string memory tokenURI,\r\n            uint256 tokenid,\r\n            address payable _seller,\r\n            address payable _owner,\r\n            uint _price,\r\n            bool _sold\r\n        )\r\n    {\r\n        MarketItem storage review = idToMarketItem[tokenId];\r\n        return (\r\n            review.comments,\r\n            review.upvotes,\r\n            review.downvotes,\r\n            review.moderated,\r\n            review.timestamp,\r\n            review.category,\r\n            review.tokenURI,\r\n            review.tokenId,\r\n            review.seller,\r\n            review.owner,\r\n            review.price,\r\n            review.sold\r\n        );\r\n    }\r\n\r\n    function hasUserVoted(uint256 tokenId) public view returns (bool) {\r\n        MarketItem storage review = idToMarketItem[tokenId];\r\n        return\r\n            review.comments.length > 0 &&\r\n            (review.upvotes > 0 || review.downvotes > 0);\r\n    }\r\n\r\n    function commentOnReview(uint256 tokenId, string memory comment) public {\r\n        require(idToMarketItem[tokenId].tokenId != 0, \"Review does not exist\");\r\n        // require(bytes(comment).length > 0, \"Comment cannot be empty\");\r\n\r\n        idToMarketItem[tokenId].comments.push(comment);\r\n    }\r\n\r\n    function getBusinessDetailsByDomain(\r\n        string memory businessDomain\r\n    )\r\n        public\r\n        view\r\n        returns (\r\n            string memory username,\r\n            bool isBusiness,\r\n            string memory userBusinessDomain,\r\n            string memory businessDescription,\r\n            string memory businessCategory,\r\n            uint256 reputation\r\n        )\r\n    {\r\n        address userAddress = getUserAddressByDomain(businessDomain);\r\n\r\n        User storage user = users[userAddress];\r\n\r\n        return (\r\n            user.username,\r\n            user.isBusiness,\r\n            user.businessDomain,\r\n            user.businessDescription,\r\n            user.businessCategory,\r\n            user.reputation\r\n        );\r\n    }\r\n\r\n    function getUserAddressByDomain(\r\n        string memory businessDomain\r\n    ) public view returns (address) {\r\n        for (uint256 i = 0; i < Allusers.length; i++) {\r\n            string memory tetsDomain = AlluserDomians[Allusers[i]];\r\n            if (\r\n                keccak256(bytes(tetsDomain)) == keccak256(bytes(businessDomain))\r\n            ) {\r\n                return Allusers[i];\r\n            }\r\n        }\r\n        revert(\"No user found for the given business domain\");\r\n    }\r\n\r\n    function buyNFT(uint256 tokenId) public payable {\r\n        require(idToMarketItem[tokenId].tokenId != 0, \"NFT does not exist\");\r\n        require(!idToMarketItem[tokenId].sold, \"NFT already sold\");\r\n        require(\r\n            msg.value >= idToMarketItem[tokenId].price,\r\n            \"Insufficient funds\"\r\n        );\r\n\r\n        // Calculate the commission for the marketplace contract owner\r\n        uint256 marketplaceOwnerShare = (idToMarketItem[tokenId].price *\r\n            ownerCommissionPercentage) / 1000;\r\n        // Transfer the payment (minus the marketplace owner's share) to the seller\r\n        idToMarketItem[tokenId].seller.transfer(\r\n            msg.value - marketplaceOwnerShare\r\n        );\r\n        // Transfer the marketplace owner's share to the marketplace contract owner\r\n        payable(owner).transfer(marketplaceOwnerShare);\r\n\r\n        // Transfer ownership of the NFT to the buyer\r\n        idToMarketItem[tokenId].owner = payable(msg.sender);\r\n        idToMarketItem[tokenId].seller = payable(msg.sender);\r\n        // idToMarketItem[tokenId].sold = true;\r\n\r\n        _transfer(address(this), msg.sender, tokenId);\r\n\r\n        emit MarketItemSold(\r\n            tokenId,\r\n            idToMarketItem[tokenId].seller,\r\n            msg.sender,\r\n            idToMarketItem[tokenId].price\r\n        );\r\n    }\r\n\r\n    function delistNFT(uint256 tokenId, string memory businessDomain) public {\r\n        require(\r\n            ownerOf(tokenId) == msg.sender,\r\n            \"You are not the owner of this NFT\"\r\n        );\r\n        require(\r\n            registeredDomains[businessDomain],\r\n            \"Business domain is not registered\"\r\n        );\r\n\r\n        MarketItem storage marketItem = idToMarketItem[tokenId];\r\n        require(\r\n            keccak256(abi.encodePacked(marketItem.businessDomain)) ==\r\n                keccak256(abi.encodePacked(businessDomain)),\r\n            \"NFT is not associated with this domain\"\r\n        );\r\n\r\n        // Mark the NFT as sold (delisted) for this domain\r\n        marketItem.sold = true;\r\n\r\n        emit NFTDelisted(tokenId, businessDomain);\r\n    }\r\n\r\n    // Function to check if an address exists in the array\r\n    function isUser(address checkAddress) public view returns (bool) {\r\n        for (uint256 i = 0; i < Allusers.length; i++) {\r\n            if (Allusers[i] == checkAddress) {\r\n                return true; // Address exists in the array\r\n            }\r\n        }\r\n        return false; // Address does not exist in the array\r\n    }\r\n}\r\n",
  "sourcePath": "D:\\Blockhain Internship Invictous\\Decentralized TrustPilot\\truffle\\contracts\\UserAndNFTMarketplace.sol",
  "compiler": {
    "name": "solc",
    "version": "0.8.23+commit.f704f362.Emscripten.clang"
  },
  "schemaVersion": "3.4.16",
  "updatedAt": "2023-12-05T09:32:17.332Z",
  "networkType": "ethereum",
  "devdoc": {
    "errors": {
      "ERC721IncorrectOwner(address,uint256,address)": [
        {
          "details": "Indicates an error related to the ownership over a particular token. Used in transfers.",
          "params": {
            "owner": "Address of the current owner of a token.",
            "sender": "Address whose tokens are being transferred.",
            "tokenId": "Identifier number of a token."
          }
        }
      ],
      "ERC721InsufficientApproval(address,uint256)": [
        {
          "details": "Indicates a failure with the `operator`s approval. Used in transfers.",
          "params": {
            "operator": "Address that may be allowed to operate on tokens without being their owner.",
            "tokenId": "Identifier number of a token."
          }
        }
      ],
      "ERC721InvalidApprover(address)": [
        {
          "details": "Indicates a failure with the `approver` of a token to be approved. Used in approvals.",
          "params": {
            "approver": "Address initiating an approval operation."
          }
        }
      ],
      "ERC721InvalidOperator(address)": [
        {
          "details": "Indicates a failure with the `operator` to be approved. Used in approvals.",
          "params": {
            "operator": "Address that may be allowed to operate on tokens without being their owner."
          }
        }
      ],
      "ERC721InvalidOwner(address)": [
        {
          "details": "Indicates that an address can't be an owner. For example, `address(0)` is a forbidden owner in EIP-20. Used in balance queries.",
          "params": {
            "owner": "Address of the current owner of a token."
          }
        }
      ],
      "ERC721InvalidReceiver(address)": [
        {
          "details": "Indicates a failure with the token `receiver`. Used in transfers.",
          "params": {
            "receiver": "Address to which tokens are being transferred."
          }
        }
      ],
      "ERC721InvalidSender(address)": [
        {
          "details": "Indicates a failure with the token `sender`. Used in transfers.",
          "params": {
            "sender": "Address whose tokens are being transferred."
          }
        }
      ],
      "ERC721NonexistentToken(uint256)": [
        {
          "details": "Indicates a `tokenId` whose `owner` is the zero address.",
          "params": {
            "tokenId": "Identifier number of a token."
          }
        }
      ]
    },
    "events": {
      "Approval(address,address,uint256)": {
        "details": "Emitted when `owner` enables `approved` to manage the `tokenId` token."
      },
      "ApprovalForAll(address,address,bool)": {
        "details": "Emitted when `owner` enables or disables (`approved`) `operator` to manage all of its assets."
      },
      "BatchMetadataUpdate(uint256,uint256)": {
        "details": "This event emits when the metadata of a range of tokens is changed. So that the third-party platforms such as NFT market could timely update the images and related attributes of the NFTs."
      },
      "MetadataUpdate(uint256)": {
        "details": "This event emits when the metadata of a token is changed. So that the third-party platforms such as NFT market could timely update the images and related attributes of the NFT."
      },
      "Transfer(address,address,uint256)": {
        "details": "Emitted when `tokenId` token is transferred from `from` to `to`."
      }
    },
    "kind": "dev",
    "methods": {
      "approve(address,uint256)": {
        "details": "See {IERC721-approve}."
      },
      "balanceOf(address)": {
        "details": "See {IERC721-balanceOf}."
      },
      "getApproved(uint256)": {
        "details": "See {IERC721-getApproved}."
      },
      "isApprovedForAll(address,address)": {
        "details": "See {IERC721-isApprovedForAll}."
      },
      "name()": {
        "details": "See {IERC721Metadata-name}."
      },
      "ownerOf(uint256)": {
        "details": "See {IERC721-ownerOf}."
      },
      "safeTransferFrom(address,address,uint256)": {
        "details": "See {IERC721-safeTransferFrom}."
      },
      "safeTransferFrom(address,address,uint256,bytes)": {
        "details": "See {IERC721-safeTransferFrom}."
      },
      "setApprovalForAll(address,bool)": {
        "details": "See {IERC721-setApprovalForAll}."
      },
      "supportsInterface(bytes4)": {
        "details": "See {IERC165-supportsInterface}"
      },
      "symbol()": {
        "details": "See {IERC721Metadata-symbol}."
      },
      "tokenURI(uint256)": {
        "details": "See {IERC721Metadata-tokenURI}."
      },
      "transferFrom(address,address,uint256)": {
        "details": "See {IERC721-transferFrom}."
      }
    },
    "version": 1
  },
  "userdoc": {
    "kind": "user",
    "methods": {},
    "version": 1
  }
}