{
  "contractName": "UserAndNFTMarketplace",
  "abi": [
    {
      "inputs": [],
      "stateMutability": "nonpayable",
      "type": "constructor"
    },
    {
      "inputs": [
        {
          "internalType": "address",
          "name": "sender",
          "type": "address"
        },
        {
          "internalType": "uint256",
          "name": "tokenId",
          "type": "uint256"
        },
        {
          "internalType": "address",
          "name": "owner",
          "type": "address"
        }
      ],
      "name": "ERC721IncorrectOwner",
      "type": "error"
    },
    {
      "inputs": [
        {
          "internalType": "address",
          "name": "operator",
          "type": "address"
        },
        {
          "internalType": "uint256",
          "name": "tokenId",
          "type": "uint256"
        }
      ],
      "name": "ERC721InsufficientApproval",
      "type": "error"
    },
    {
      "inputs": [
        {
          "internalType": "address",
          "name": "approver",
          "type": "address"
        }
      ],
      "name": "ERC721InvalidApprover",
      "type": "error"
    },
    {
      "inputs": [
        {
          "internalType": "address",
          "name": "operator",
          "type": "address"
        }
      ],
      "name": "ERC721InvalidOperator",
      "type": "error"
    },
    {
      "inputs": [
        {
          "internalType": "address",
          "name": "owner",
          "type": "address"
        }
      ],
      "name": "ERC721InvalidOwner",
      "type": "error"
    },
    {
      "inputs": [
        {
          "internalType": "address",
          "name": "receiver",
          "type": "address"
        }
      ],
      "name": "ERC721InvalidReceiver",
      "type": "error"
    },
    {
      "inputs": [
        {
          "internalType": "address",
          "name": "sender",
          "type": "address"
        }
      ],
      "name": "ERC721InvalidSender",
      "type": "error"
    },
    {
      "inputs": [
        {
          "internalType": "uint256",
          "name": "tokenId",
          "type": "uint256"
        }
      ],
      "name": "ERC721NonexistentToken",
      "type": "error"
    },
    {
      "anonymous": false,
      "inputs": [
        {
          "indexed": true,
          "internalType": "address",
          "name": "owner",
          "type": "address"
        },
        {
          "indexed": true,
          "internalType": "address",
          "name": "approved",
          "type": "address"
        },
        {
          "indexed": true,
          "internalType": "uint256",
          "name": "tokenId",
          "type": "uint256"
        }
      ],
      "name": "Approval",
      "type": "event"
    },
    {
      "anonymous": false,
      "inputs": [
        {
          "indexed": true,
          "internalType": "address",
          "name": "owner",
          "type": "address"
        },
        {
          "indexed": true,
          "internalType": "address",
          "name": "operator",
          "type": "address"
        },
        {
          "indexed": false,
          "internalType": "bool",
          "name": "approved",
          "type": "bool"
        }
      ],
      "name": "ApprovalForAll",
      "type": "event"
    },
    {
      "anonymous": false,
      "inputs": [
        {
          "indexed": false,
          "internalType": "uint256",
          "name": "_fromTokenId",
          "type": "uint256"
        },
        {
          "indexed": false,
          "internalType": "uint256",
          "name": "_toTokenId",
          "type": "uint256"
        }
      ],
      "name": "BatchMetadataUpdate",
      "type": "event"
    },
    {
      "anonymous": false,
      "inputs": [
        {
          "indexed": false,
          "internalType": "string",
          "name": "domain",
          "type": "string"
        }
      ],
      "name": "DomainRegistered",
      "type": "event"
    },
    {
      "anonymous": false,
      "inputs": [
        {
          "indexed": true,
          "internalType": "uint256",
          "name": "tokenId",
          "type": "uint256"
        },
        {
          "indexed": false,
          "internalType": "address",
          "name": "seller",
          "type": "address"
        },
        {
          "indexed": false,
          "internalType": "address",
          "name": "owner",
          "type": "address"
        },
        {
          "indexed": false,
          "internalType": "uint256",
          "name": "price",
          "type": "uint256"
        },
        {
          "indexed": false,
          "internalType": "bool",
          "name": "sold",
          "type": "bool"
        },
        {
          "indexed": false,
          "internalType": "string",
          "name": "businessDomain",
          "type": "string"
        }
      ],
      "name": "MarketItemCreated",
      "type": "event"
    },
    {
      "anonymous": false,
      "inputs": [
        {
          "indexed": true,
          "internalType": "uint256",
          "name": "tokenId",
          "type": "uint256"
        },
        {
          "indexed": false,
          "internalType": "address",
          "name": "seller",
          "type": "address"
        },
        {
          "indexed": false,
          "internalType": "address",
          "name": "buyer",
          "type": "address"
        },
        {
          "indexed": false,
          "internalType": "uint256",
          "name": "price",
          "type": "uint256"
        }
      ],
      "name": "MarketItemSold",
      "type": "event"
    },
    {
      "anonymous": false,
      "inputs": [
        {
          "indexed": false,
          "internalType": "uint256",
          "name": "_tokenId",
          "type": "uint256"
        }
      ],
      "name": "MetadataUpdate",
      "type": "event"
    },
    {
      "anonymous": false,
      "inputs": [
        {
          "indexed": false,
          "internalType": "uint256",
          "name": "tokenId",
          "type": "uint256"
        },
        {
          "indexed": false,
          "internalType": "string",
          "name": "businessDomain",
          "type": "string"
        }
      ],
      "name": "NFTDelisted",
      "type": "event"
    },
    {
      "anonymous": false,
      "inputs": [
        {
          "indexed": true,
          "internalType": "uint256",
          "name": "tokenId",
          "type": "uint256"
        },
        {
          "indexed": false,
          "internalType": "address",
          "name": "voter",
          "type": "address"
        },
        {
          "indexed": false,
          "internalType": "bool",
          "name": "isUpvote",
          "type": "bool"
        }
      ],
      "name": "ReviewVoted",
      "type": "event"
    },
    {
      "anonymous": false,
      "inputs": [
        {
          "indexed": true,
          "internalType": "address",
          "name": "from",
          "type": "address"
        },
        {
          "indexed": true,
          "internalType": "address",
          "name": "to",
          "type": "address"
        },
        {
          "indexed": true,
          "internalType": "uint256",
          "name": "tokenId",
          "type": "uint256"
        }
      ],
      "name": "Transfer",
      "type": "event"
    },
    {
      "anonymous": false,
      "inputs": [
        {
          "indexed": false,
          "internalType": "string",
          "name": "username",
          "type": "string"
        },
        {
          "indexed": false,
          "internalType": "address",
          "name": "userAddress",
          "type": "address"
        },
        {
          "indexed": false,
          "internalType": "bool",
          "name": "isBusiness",
          "type": "bool"
        },
        {
          "indexed": false,
          "internalType": "string",
          "name": "businessDomain",
          "type": "string"
        },
        {
          "indexed": false,
          "internalType": "string",
          "name": "businessDescription",
          "type": "string"
        },
        {
          "indexed": false,
          "internalType": "string",
          "name": "businessCategory",
          "type": "string"
        }
      ],
      "name": "UserRegistered",
      "type": "event"
    },
    {
      "inputs": [
        {
          "internalType": "address",
          "name": "",
          "type": "address"
        }
      ],
      "name": "AlluserDomians",
      "outputs": [
        {
          "internalType": "string",
          "name": "",
          "type": "string"
        }
      ],
      "stateMutability": "view",
      "type": "function"
    },
    {
      "inputs": [
        {
          "internalType": "uint256",
          "name": "",
          "type": "uint256"
        }
      ],
      "name": "Allusers",
      "outputs": [
        {
          "internalType": "address",
          "name": "",
          "type": "address"
        }
      ],
      "stateMutability": "view",
      "type": "function"
    },
    {
      "inputs": [
        {
          "internalType": "address",
          "name": "to",
          "type": "address"
        },
        {
          "internalType": "uint256",
          "name": "tokenId",
          "type": "uint256"
        }
      ],
      "name": "approve",
      "outputs": [],
      "stateMutability": "nonpayable",
      "type": "function"
    },
    {
      "inputs": [
        {
          "internalType": "address",
          "name": "owner",
          "type": "address"
        }
      ],
      "name": "balanceOf",
      "outputs": [
        {
          "internalType": "uint256",
          "name": "",
          "type": "uint256"
        }
      ],
      "stateMutability": "view",
      "type": "function"
    },
    {
      "inputs": [
        {
          "internalType": "uint256",
          "name": "tokenId",
          "type": "uint256"
        }
      ],
      "name": "getApproved",
      "outputs": [
        {
          "internalType": "address",
          "name": "",
          "type": "address"
        }
      ],
      "stateMutability": "view",
      "type": "function"
    },
    {
      "inputs": [
        {
          "internalType": "address",
          "name": "owner",
          "type": "address"
        },
        {
          "internalType": "address",
          "name": "operator",
          "type": "address"
        }
      ],
      "name": "isApprovedForAll",
      "outputs": [
        {
          "internalType": "bool",
          "name": "",
          "type": "bool"
        }
      ],
      "stateMutability": "view",
      "type": "function"
    },
    {
      "inputs": [],
      "name": "name",
      "outputs": [
        {
          "internalType": "string",
          "name": "",
          "type": "string"
        }
      ],
      "stateMutability": "view",
      "type": "function"
    },
    {
      "inputs": [
        {
          "internalType": "uint256",
          "name": "tokenId",
          "type": "uint256"
        }
      ],
      "name": "ownerOf",
      "outputs": [
        {
          "internalType": "address",
          "name": "",
          "type": "address"
        }
      ],
      "stateMutability": "view",
      "type": "function"
    },
    {
      "inputs": [
        {
          "internalType": "string",
          "name": "",
          "type": "string"
        }
      ],
      "name": "registeredDomains",
      "outputs": [
        {
          "internalType": "bool",
          "name": "",
          "type": "bool"
        }
      ],
      "stateMutability": "view",
      "type": "function"
    },
    {
      "inputs": [
        {
          "internalType": "uint256",
          "name": "",
          "type": "uint256"
        }
      ],
      "name": "registeredDomainsArray",
      "outputs": [
        {
          "internalType": "string",
          "name": "",
          "type": "string"
        }
      ],
      "stateMutability": "view",
      "type": "function"
    },
    {
      "inputs": [
        {
          "internalType": "address",
          "name": "from",
          "type": "address"
        },
        {
          "internalType": "address",
          "name": "to",
          "type": "address"
        },
        {
          "internalType": "uint256",
          "name": "tokenId",
          "type": "uint256"
        }
      ],
      "name": "safeTransferFrom",
      "outputs": [],
      "stateMutability": "nonpayable",
      "type": "function"
    },
    {
      "inputs": [
        {
          "internalType": "address",
          "name": "from",
          "type": "address"
        },
        {
          "internalType": "address",
          "name": "to",
          "type": "address"
        },
        {
          "internalType": "uint256",
          "name": "tokenId",
          "type": "uint256"
        },
        {
          "internalType": "bytes",
          "name": "data",
          "type": "bytes"
        }
      ],
      "name": "safeTransferFrom",
      "outputs": [],
      "stateMutability": "nonpayable",
      "type": "function"
    },
    {
      "inputs": [
        {
          "internalType": "address",
          "name": "operator",
          "type": "address"
        },
        {
          "internalType": "bool",
          "name": "approved",
          "type": "bool"
        }
      ],
      "name": "setApprovalForAll",
      "outputs": [],
      "stateMutability": "nonpayable",
      "type": "function"
    },
    {
      "inputs": [
        {
          "internalType": "bytes4",
          "name": "interfaceId",
          "type": "bytes4"
        }
      ],
      "name": "supportsInterface",
      "outputs": [
        {
          "internalType": "bool",
          "name": "",
          "type": "bool"
        }
      ],
      "stateMutability": "view",
      "type": "function"
    },
    {
      "inputs": [],
      "name": "symbol",
      "outputs": [
        {
          "internalType": "string",
          "name": "",
          "type": "string"
        }
      ],
      "stateMutability": "view",
      "type": "function"
    },
    {
      "inputs": [
        {
          "internalType": "uint256",
          "name": "tokenId",
          "type": "uint256"
        }
      ],
      "name": "tokenURI",
      "outputs": [
        {
          "internalType": "string",
          "name": "",
          "type": "string"
        }
      ],
      "stateMutability": "view",
      "type": "function"
    },
    {
      "inputs": [
        {
          "internalType": "address",
          "name": "from",
          "type": "address"
        },
        {
          "internalType": "address",
          "name": "to",
          "type": "address"
        },
        {
          "internalType": "uint256",
          "name": "tokenId",
          "type": "uint256"
        }
      ],
      "name": "transferFrom",
      "outputs": [],
      "stateMutability": "nonpayable",
      "type": "function"
    },
    {
      "inputs": [
        {
          "internalType": "address",
          "name": "",
          "type": "address"
        }
      ],
      "name": "users",
      "outputs": [
        {
          "internalType": "string",
          "name": "username",
          "type": "string"
        },
        {
          "internalType": "bool",
          "name": "isBusiness",
          "type": "bool"
        },
        {
          "internalType": "string",
          "name": "businessDomain",
          "type": "string"
        },
        {
          "internalType": "string",
          "name": "businessDescription",
          "type": "string"
        },
        {
          "internalType": "string",
          "name": "businessCategory",
          "type": "string"
        },
        {
          "internalType": "uint256",
          "name": "reputation",
          "type": "uint256"
        }
      ],
      "stateMutability": "view",
      "type": "function"
    },
    {
      "inputs": [
        {
          "internalType": "string",
          "name": "_username",
          "type": "string"
        },
        {
          "internalType": "bool",
          "name": "_isBusiness",
          "type": "bool"
        },
        {
          "internalType": "string",
          "name": "_businessDomain",
          "type": "string"
        },
        {
          "internalType": "string",
          "name": "_businessDescription",
          "type": "string"
        },
        {
          "internalType": "string",
          "name": "_businessCategory",
          "type": "string"
        }
      ],
      "name": "registerUser",
      "outputs": [],
      "stateMutability": "nonpayable",
      "type": "function"
    },
    {
      "inputs": [],
      "name": "getRegisteredDomains",
      "outputs": [
        {
          "internalType": "string[]",
          "name": "",
          "type": "string[]"
        }
      ],
      "stateMutability": "view",
      "type": "function"
    },
    {
      "inputs": [
        {
          "internalType": "string",
          "name": "tokenURI",
          "type": "string"
        },
        {
          "internalType": "uint256",
          "name": "price",
          "type": "uint256"
        },
        {
          "internalType": "string",
          "name": "businessDomain",
          "type": "string"
        }
      ],
      "name": "createReviewNFT",
      "outputs": [
        {
          "internalType": "uint256",
          "name": "",
          "type": "uint256"
        }
      ],
      "stateMutability": "payable",
      "type": "function"
    },
    {
      "inputs": [],
      "name": "fetchBusinessDomains",
      "outputs": [
        {
          "internalType": "string[]",
          "name": "",
          "type": "string[]"
        }
      ],
      "stateMutability": "view",
      "type": "function"
    },
    {
      "inputs": [],
      "name": "getRegisteredDomainCount",
      "outputs": [
        {
          "internalType": "uint256",
          "name": "",
          "type": "uint256"
        }
      ],
      "stateMutability": "view",
      "type": "function"
    },
    {
      "inputs": [
        {
          "internalType": "string",
          "name": "businessDomain",
          "type": "string"
        }
      ],
      "name": "fetchNFTsByDomain",
      "outputs": [
        {
          "internalType": "uint256[]",
          "name": "",
          "type": "uint256[]"
        }
      ],
      "stateMutability": "view",
      "type": "function"
    },
    {
      "inputs": [],
      "name": "fetchUserNFTs",
      "outputs": [
        {
          "internalType": "uint256[]",
          "name": "",
          "type": "uint256[]"
        }
      ],
      "stateMutability": "view",
      "type": "function"
    },
    {
      "inputs": [
        {
          "internalType": "uint256",
          "name": "tokenId",
          "type": "uint256"
        }
      ],
      "name": "upvoteReview",
      "outputs": [],
      "stateMutability": "nonpayable",
      "type": "function"
    },
    {
      "inputs": [
        {
          "internalType": "uint256",
          "name": "tokenId",
          "type": "uint256"
        }
      ],
      "name": "downvoteReview",
      "outputs": [],
      "stateMutability": "nonpayable",
      "type": "function"
    },
    {
      "inputs": [
        {
          "internalType": "uint256",
          "name": "tokenId",
          "type": "uint256"
        }
      ],
      "name": "getReviewDetails",
      "outputs": [
        {
          "internalType": "string[]",
          "name": "comments",
          "type": "string[]"
        },
        {
          "internalType": "uint256",
          "name": "upvotes",
          "type": "uint256"
        },
        {
          "internalType": "uint256",
          "name": "downvotes",
          "type": "uint256"
        },
        {
          "internalType": "bool",
          "name": "moderated",
          "type": "bool"
        },
        {
          "internalType": "uint256",
          "name": "timestamp",
          "type": "uint256"
        },
        {
          "internalType": "string",
          "name": "category",
          "type": "string"
        },
        {
          "internalType": "string",
          "name": "tokenURI",
          "type": "string"
        },
        {
          "internalType": "uint256",
          "name": "tokenid",
          "type": "uint256"
        },
        {
          "internalType": "address payable",
          "name": "_seller",
          "type": "address"
        },
        {
          "internalType": "address payable",
          "name": "_owner",
          "type": "address"
        },
        {
          "internalType": "uint256",
          "name": "_price",
          "type": "uint256"
        },
        {
          "internalType": "bool",
          "name": "_sold",
          "type": "bool"
        }
      ],
      "stateMutability": "view",
      "type": "function"
    },
    {
      "inputs": [
        {
          "internalType": "uint256",
          "name": "tokenId",
          "type": "uint256"
        }
      ],
      "name": "hasUserVoted",
      "outputs": [
        {
          "internalType": "bool",
          "name": "",
          "type": "bool"
        }
      ],
      "stateMutability": "view",
      "type": "function"
    },
    {
      "inputs": [
        {
          "internalType": "uint256",
          "name": "tokenId",
          "type": "uint256"
        },
        {
          "internalType": "string",
          "name": "comment",
          "type": "string"
        }
      ],
      "name": "commentOnReview",
      "outputs": [],
      "stateMutability": "nonpayable",
      "type": "function"
    },
    {
      "inputs": [
        {
          "internalType": "string",
          "name": "businessDomain",
          "type": "string"
        }
      ],
      "name": "getBusinessDetailsByDomain",
      "outputs": [
        {
          "internalType": "string",
          "name": "username",
          "type": "string"
        },
        {
          "internalType": "bool",
          "name": "isBusiness",
          "type": "bool"
        },
        {
          "internalType": "string",
          "name": "userBusinessDomain",
          "type": "string"
        },
        {
          "internalType": "string",
          "name": "businessDescription",
          "type": "string"
        },
        {
          "internalType": "string",
          "name": "businessCategory",
          "type": "string"
        },
        {
          "internalType": "uint256",
          "name": "reputation",
          "type": "uint256"
        }
      ],
      "stateMutability": "view",
      "type": "function"
    },
    {
      "inputs": [
        {
          "internalType": "string",
          "name": "businessDomain",
          "type": "string"
        }
      ],
      "name": "getUserAddressByDomain",
      "outputs": [
        {
          "internalType": "address",
          "name": "",
          "type": "address"
        }
      ],
      "stateMutability": "view",
      "type": "function"
    },
    {
      "inputs": [
        {
          "internalType": "uint256",
          "name": "tokenId",
          "type": "uint256"
        }
      ],
      "name": "buyNFT",
      "outputs": [],
      "stateMutability": "payable",
      "type": "function"
    },
    {
      "inputs": [
        {
          "internalType": "uint256",
          "name": "tokenId",
          "type": "uint256"
        },
        {
          "internalType": "string",
          "name": "businessDomain",
          "type": "string"
        }
      ],
      "name": "delistNFT",
      "outputs": [],
      "stateMutability": "nonpayable",
      "type": "function"
    },
    {
      "inputs": [
        {
          "internalType": "address",
          "name": "checkAddress",
          "type": "address"
        }
      ],
      "name": "isUser",
      "outputs": [
        {
          "internalType": "bool",
          "name": "",
          "type": "bool"
        }
      ],
      "stateMutability": "view",
      "type": "function"
    }
  ],
  "bytecode": "0x608060405266038d7ea4c68000600955600f600a55600a546103e8610024919061013b565b600b55348015610032575f80fd5b506040518060400160405280600781526020017f41727462797465000000000000000000000000000000000000000000000000008152506040518060400160405280600381526020017f4152540000000000000000000000000000000000000000000000000000000000815250815f90816100ad919061039f565b5080600190816100bd919061039f565b50505033600c5f6101000a81548173ffffffffffffffffffffffffffffffffffffffff021916908373ffffffffffffffffffffffffffffffffffffffff16021790555061046e565b5f819050919050565b7f4e487b71000000000000000000000000000000000000000000000000000000005f52601160045260245ffd5b5f61014582610105565b915061015083610105565b92508282039050818111156101685761016761010e565b5b92915050565b5f81519050919050565b7f4e487b71000000000000000000000000000000000000000000000000000000005f52604160045260245ffd5b7f4e487b71000000000000000000000000000000000000000000000000000000005f52602260045260245ffd5b5f60028204905060018216806101e957607f821691505b6020821081036101fc576101fb6101a5565b5b50919050565b5f819050815f5260205f209050919050565b5f6020601f8301049050919050565b5f82821b905092915050565b5f6008830261025e7fffffffffffffffffffffffffffffffffffffffffffffffffffffffffffffffff82610223565b6102688683610223565b95508019841693508086168417925050509392505050565b5f819050919050565b5f6102a361029e61029984610105565b610280565b610105565b9050919050565b5f819050919050565b6102bc83610289565b6102d06102c8826102aa565b84845461022f565b825550505050565b5f90565b6102e46102d8565b6102ef8184846102b3565b505050565b5b81811015610312576103075f826102dc565b6001810190506102f5565b5050565b601f8211156103575761032881610202565b61033184610214565b81016020851015610340578190505b61035461034c85610214565b8301826102f4565b50505b505050565b5f82821c905092915050565b5f6103775f198460080261035c565b1980831691505092915050565b5f61038f8383610368565b9150826002028217905092915050565b6103a88261016e565b67ffffffffffffffff8111156103c1576103c0610178565b5b6103cb82546101d2565b6103d6828285610316565b5f60209050601f831160018114610407575f84156103f5578287015190505b6103ff8582610384565b865550610466565b601f19841661041586610202565b5f5b8281101561043c57848901518255600182019150602085019450602081019050610417565b868310156104595784890151610455601f891682610368565b8355505b6001600288020188555050505b505050505050565b615e778061047b5f395ff3fe608060405260043610610202575f3560e01c806380d2ec8611610117578063bae203ac1161009f578063c902d5e61161006e578063c902d5e6146107de578063e617de7b1461081a578063e985e9c514610861578063ef76280f1461089d578063ff5761ac146108c757610202565b8063bae203ac146106e9578063bc86efb814610725578063c3ef102814610761578063c87b56dd146107a257610202565b8063a22cb465116100e6578063a22cb465146105f4578063a87430ba1461061c578063ab076ef41461065d578063b1820e7f14610685578063b88d4fde146106c157610202565b806380d2ec86146105465780638b8ca2991461057057806395d89b41146105a05780639ed2b021146105ca57610202565b806333f779e51161019a5780635153af5c116101695780635153af5c1461044e57806351ed82881461048a5780636352211e146104a65780636465ffda146104e257806370a082311461050a57610202565b806333f779e5146103865780633ced6738146103c25780634209fff1146103ea57806342842e0e1461042657610202565b8063095ea7b3116101d6578063095ea7b3146102d25780630bc119c0146102fa5780630cf4d8de1461032257806323b872dd1461035e57610202565b806281e35d1461020657806301ffc9a71461023057806306fdde031461026c578063081812fc14610296575b5f80fd5b348015610211575f80fd5b5061021a6108ef565b60405161022791906144a9565b60405180910390f35b34801561023b575f80fd5b506102566004803603810190610251919061452f565b610a8a565b6040516102639190614574565b60405180910390f35b348015610277575f80fd5b50610280610aea565b60405161028d91906145d5565b60405180910390f35b3480156102a1575f80fd5b506102bc60048036038101906102b79190614628565b610b79565b6040516102c99190614692565b60405180910390f35b3480156102dd575f80fd5b506102f860048036038101906102f391906146d5565b610b94565b005b348015610305575f80fd5b50610320600480360381019061031b919061483f565b610baa565b005b34801561032d575f80fd5b5061034860048036038101906103439190614628565b610d89565b60405161035591906145d5565b60405180910390f35b348015610369575f80fd5b50610384600480360381019061037f9190614899565b610e2f565b005b348015610391575f80fd5b506103ac60048036038101906103a791906148e9565b610f2e565b6040516103b99190614692565b60405180910390f35b3480156103cd575f80fd5b506103e860048036038101906103e39190614628565b6110ec565b005b3480156103f5575f80fd5b50610410600480360381019061040b9190614930565b6111f1565b60405161041d9190614574565b60405180910390f35b348015610431575f80fd5b5061044c60048036038101906104479190614899565b611293565b005b348015610459575f80fd5b50610474600480360381019061046f9190614628565b6112b2565b6040516104819190614574565b60405180910390f35b6104a4600480360381019061049f9190614628565b6112f6565b005b3480156104b1575f80fd5b506104cc60048036038101906104c79190614628565b611652565b6040516104d99190614692565b60405180910390f35b3480156104ed575f80fd5b506105086004803603810190610503919061483f565b611663565b005b348015610515575f80fd5b50610530600480360381019061052b9190614930565b611700565b60405161053d919061496a565b60405180910390f35b348015610551575f80fd5b5061055a6117b6565b60405161056791906144a9565b60405180910390f35b61058a60048036038101906105859190614983565b61188a565b604051610597919061496a565b60405180910390f35b3480156105ab575f80fd5b506105b4611af4565b6040516105c191906145d5565b60405180910390f35b3480156105d5575f80fd5b506105de611b84565b6040516105eb919061496a565b60405180910390f35b3480156105ff575f80fd5b5061061a60048036038101906106159190614a35565b611c0c565b005b348015610627575f80fd5b50610642600480360381019061063d9190614930565b611c22565b60405161065496959493929190614a73565b60405180910390f35b348015610668575f80fd5b50610683600480360381019061067e9190614628565b611e7e565b005b348015610690575f80fd5b506106ab60048036038101906106a691906148e9565b611f82565b6040516106b89190614ba5565b60405180910390f35b3480156106cc575f80fd5b506106e760048036038101906106e29190614c63565b61201e565b005b3480156106f4575f80fd5b5061070f600480360381019061070a9190614930565b61203b565b60405161071c91906145d5565b60405180910390f35b348015610730575f80fd5b5061074b600480360381019061074691906148e9565b6120d6565b6040516107589190614574565b60405180910390f35b34801561076c575f80fd5b50610787600480360381019061078291906148e9565b61210b565b60405161079996959493929190614a73565b60405180910390f35b3480156107ad575f80fd5b506107c860048036038101906107c39190614628565b6123c4565b6040516107d591906145d5565b60405180910390f35b3480156107e9575f80fd5b5061080460048036038101906107ff9190614628565b6124cf565b6040516108119190614692565b60405180910390f35b348015610825575f80fd5b50610840600480360381019061083b9190614628565b61250a565b6040516108589c9b9a99989796959493929190614d03565b60405180910390f35b34801561086c575f80fd5b5061088760048036038101906108829190614dd0565b6127c4565b6040516108949190614574565b60405180910390f35b3480156108a8575f80fd5b506108b1612852565b6040516108be9190614ba5565b60405180910390f35b3480156108d2575f80fd5b506108ed60048036038101906108e89190614e0e565b612987565b005b60605f6108fa611b84565b90505f8167ffffffffffffffff8111156109175761091661471b565b5b60405190808252806020026020018201604052801561094a57816020015b60608152602001906001900390816109355790505b5090505f80600190505b61095e6007612d1d565b8111610a80575f600d5f8381526020019081526020015f20600601805461098490614f22565b80601f01602080910402602001604051908101604052809291908181526020018280546109b090614f22565b80156109fb5780601f106109d2576101008083540402835291602001916109fb565b820191905f5260205f20905b8154815290600101906020018083116109de57829003601f168201915b505050505090505f8151118015610a395750600f81604051610a1d9190614f8c565b90815260200160405180910390205f9054906101000a900460ff165b15610a6c5780848481518110610a5257610a51614fa2565b5b60200260200101819052508280610a6890614ffc565b9350505b508080610a7890614ffc565b915050610954565b5081935050505090565b5f634906490660e01b7bffffffffffffffffffffffffffffffffffffffffffffffffffffffff1916827bffffffffffffffffffffffffffffffffffffffffffffffffffffffff19161480610ae35750610ae282612d29565b5b9050919050565b60605f8054610af890614f22565b80601f0160208091040260200160405190810160405280929190818152602001828054610b2490614f22565b8015610b6f5780601f10610b4657610100808354040283529160200191610b6f565b820191905f5260205f20905b815481529060010190602001808311610b5257829003601f168201915b5050505050905090565b5f610b8382612e0a565b50610b8d82612e90565b9050919050565b610ba68282610ba1612ec9565b612ed0565b5050565b3373ffffffffffffffffffffffffffffffffffffffff16610bca83611652565b73ffffffffffffffffffffffffffffffffffffffff1614610c20576040517f08c379a0000000000000000000000000000000000000000000000000000000008152600401610c17906150b3565b60405180910390fd5b600f81604051610c309190614f8c565b90815260200160405180910390205f9054906101000a900460ff16610c8a576040517f08c379a0000000000000000000000000000000000000000000000000000000008152600401610c8190615141565b60405180910390fd5b5f600d5f8481526020019081526020015f20905081604051602001610caf9190614f8c565b6040516020818303038152906040528051906020012081600601604051602001610cd991906151f1565b6040516020818303038152906040528051906020012014610d2f576040517f08c379a0000000000000000000000000000000000000000000000000000000008152600401610d2690615277565b60405180910390fd5b6001816005015f6101000a81548160ff0219169083151502179055507fc44a416d960fff560e34b81de3618f90a30026982b83be9bd4fcbc01c5034c618383604051610d7c929190615295565b60405180910390a1505050565b60108181548110610d98575f80fd5b905f5260205f20015f915090508054610db090614f22565b80601f0160208091040260200160405190810160405280929190818152602001828054610ddc90614f22565b8015610e275780601f10610dfe57610100808354040283529160200191610e27565b820191905f5260205f20905b815481529060010190602001808311610e0a57829003601f168201915b505050505081565b5f73ffffffffffffffffffffffffffffffffffffffff168273ffffffffffffffffffffffffffffffffffffffff1603610e9f575f6040517f64a0ae92000000000000000000000000000000000000000000000000000000008152600401610e969190614692565b60405180910390fd5b5f610eb28383610ead612ec9565b612ee2565b90508373ffffffffffffffffffffffffffffffffffffffff168173ffffffffffffffffffffffffffffffffffffffff1614610f28578382826040517f64283d7b000000000000000000000000000000000000000000000000000000008152600401610f1f939291906152c3565b60405180910390fd5b50505050565b5f805f90505b6012805490508110156110ab575f60115f60128481548110610f5957610f58614fa2565b5b905f5260205f20015f9054906101000a900473ffffffffffffffffffffffffffffffffffffffff1673ffffffffffffffffffffffffffffffffffffffff1673ffffffffffffffffffffffffffffffffffffffff1681526020019081526020015f208054610fc590614f22565b80601f0160208091040260200160405190810160405280929190818152602001828054610ff190614f22565b801561103c5780601f106110135761010080835404028352916020019161103c565b820191905f5260205f20905b81548152906001019060200180831161101f57829003601f168201915b50505050509050838051906020012081805190602001200361109d576012828154811061106c5761106b614fa2565b5b905f5260205f20015f9054906101000a900473ffffffffffffffffffffffffffffffffffffffff16925050506110e7565b508080600101915050610f34565b506040517f08c379a00000000000000000000000000000000000000000000000000000000081526004016110de90615368565b60405180910390fd5b919050565b5f600d5f8381526020019081526020015f205f015403611141576040517f08c379a0000000000000000000000000000000000000000000000000000000008152600401611138906153d0565b60405180910390fd5b61114a816112b2565b1561118a576040517f08c379a00000000000000000000000000000000000000000000000000000000081526004016111819061545e565b60405180910390fd5b600d5f8281526020019081526020015f206008015f8154809291906111ae90614ffc565b9190505550807f3e92b80b10e08c7af873b630b9789e2185d397ebfd2ef852e410f7da08a21bf33360016040516111e692919061547c565b60405180910390a250565b5f805f90505b601280549050811015611289578273ffffffffffffffffffffffffffffffffffffffff166012828154811061122f5761122e614fa2565b5b905f5260205f20015f9054906101000a900473ffffffffffffffffffffffffffffffffffffffff1673ffffffffffffffffffffffffffffffffffffffff160361127c57600191505061128e565b80806001019150506111f7565b505f90505b919050565b6112ad83838360405180602001604052805f81525061201e565b505050565b5f80600d5f8481526020019081526020015f2090505f81600701805490501180156112ee57505f816008015411806112ed57505f8160090154115b5b915050919050565b5f600d5f8381526020019081526020015f205f01540361134b576040517f08c379a0000000000000000000000000000000000000000000000000000000008152600401611342906154ed565b60405180910390fd5b600d5f8281526020019081526020015f206005015f9054906101000a900460ff16156113ac576040517f08c379a00000000000000000000000000000000000000000000000000000000081526004016113a390615555565b60405180910390fd5b600d5f8281526020019081526020015f2060040154341015611403576040517f08c379a00000000000000000000000000000000000000000000000000000000081526004016113fa906155bd565b60405180910390fd5b5f6103e8600a54600d5f8581526020019081526020015f206004015461142991906155db565b6114339190615649565b9050600d5f8381526020019081526020015f206002015f9054906101000a900473ffffffffffffffffffffffffffffffffffffffff1673ffffffffffffffffffffffffffffffffffffffff166108fc823461148e9190615679565b90811502906040515f60405180830381858888f193505050501580156114b6573d5f803e3d5ffd5b50600c5f9054906101000a900473ffffffffffffffffffffffffffffffffffffffff1673ffffffffffffffffffffffffffffffffffffffff166108fc8290811502906040515f60405180830381858888f1935050505015801561151b573d5f803e3d5ffd5b5033600d5f8481526020019081526020015f206003015f6101000a81548173ffffffffffffffffffffffffffffffffffffffff021916908373ffffffffffffffffffffffffffffffffffffffff16021790555033600d5f8481526020019081526020015f206002015f6101000a81548173ffffffffffffffffffffffffffffffffffffffff021916908373ffffffffffffffffffffffffffffffffffffffff1602179055506115cb3033846130ed565b817f150ffca547cf855e7fcf5daa82e41c6523b5fb2c8b1309bbb6cf2f87c6ae5a31600d5f8581526020019081526020015f206002015f9054906101000a900473ffffffffffffffffffffffffffffffffffffffff1633600d5f8781526020019081526020015f206004015460405161164693929190615707565b60405180910390a25050565b5f61165c82612e0a565b9050919050565b5f600d5f8481526020019081526020015f205f0154036116b8576040517f08c379a00000000000000000000000000000000000000000000000000000000081526004016116af906153d0565b60405180910390fd5b600d5f8381526020019081526020015f2060070181908060018154018082558091505060019003905f5260205f20015f9091909190915090816116fb91906158be565b505050565b5f8073ffffffffffffffffffffffffffffffffffffffff168273ffffffffffffffffffffffffffffffffffffffff1603611771575f6040517f89c62b640000000000000000000000000000000000000000000000000000000081526004016117689190614692565b60405180910390fd5b60035f8373ffffffffffffffffffffffffffffffffffffffff1673ffffffffffffffffffffffffffffffffffffffff1681526020019081526020015f20549050919050565b60606010805480602002602001604051908101604052809291908181526020015f905b82821015611881578382905f5260205f200180546117f690614f22565b80601f016020809104026020016040519081016040528092919081815260200182805461182290614f22565b801561186d5780601f106118445761010080835404028352916020019161186d565b820191905f5260205f20905b81548152906001019060200180831161185057829003601f168201915b5050505050815260200190600101906117d9565b50505050905090565b5f808251116118ce576040517f08c379a00000000000000000000000000000000000000000000000000000000081526004016118c5906159d7565b60405180910390fd5b5f845111611911576040517f08c379a000000000000000000000000000000000000000000000000000000000815260040161190890615a3f565b60405180910390fd5b5f8311611953576040517f08c379a000000000000000000000000000000000000000000000000000000000815260040161194a90615aa7565b60405180910390fd5b6009543414611997576040517f08c379a000000000000000000000000000000000000000000000000000000000815260040161198e90615b35565b60405180910390fd5b600c5f9054906101000a900473ffffffffffffffffffffffffffffffffffffffff1673ffffffffffffffffffffffffffffffffffffffff166108fc60095490811502906040515f60405180830381858888f193505050501580156119fd573d5f803e3d5ffd5b50611a086007613255565b5f611a136007612d1d565b9050611a1f3382613269565b611a29818661335c565b600f83604051611a399190614f8c565b90815260200160405180910390205f9054906101000a900460ff16611a93576040517f08c379a0000000000000000000000000000000000000000000000000000000008152600401611a8a90615141565b60405180910390fd5b611a9d81846133b6565b15611add576040517f08c379a0000000000000000000000000000000000000000000000000000000008152600401611ad490615bc3565b60405180910390fd5b611ae98185858861344c565b809150509392505050565b606060018054611b0390614f22565b80601f0160208091040260200160405190810160405280929190818152602001828054611b2f90614f22565b8015611b7a5780601f10611b5157610100808354040283529160200191611b7a565b820191905f5260205f20905b815481529060010190602001808311611b5d57829003601f168201915b5050505050905090565b5f805f90505f600190505b611b996007612d1d565b8111611c0457600f600d5f8381526020019081526020015f20600601604051611bc291906151f1565b90815260200160405180910390205f9054906101000a900460ff1615611bf1578180611bed90614ffc565b9250505b8080611bfc90614ffc565b915050611b8f565b508091505090565b611c1e611c17612ec9565b83836136f2565b5050565b600e602052805f5260405f205f91509050805f018054611c4190614f22565b80601f0160208091040260200160405190810160405280929190818152602001828054611c6d90614f22565b8015611cb85780601f10611c8f57610100808354040283529160200191611cb8565b820191905f5260205f20905b815481529060010190602001808311611c9b57829003601f168201915b505050505090806001015f9054906101000a900460ff1690806002018054611cdf90614f22565b80601f0160208091040260200160405190810160405280929190818152602001828054611d0b90614f22565b8015611d565780601f10611d2d57610100808354040283529160200191611d56565b820191905f5260205f20905b815481529060010190602001808311611d3957829003601f168201915b505050505090806003018054611d6b90614f22565b80601f0160208091040260200160405190810160405280929190818152602001828054611d9790614f22565b8015611de25780601f10611db957610100808354040283529160200191611de2565b820191905f5260205f20905b815481529060010190602001808311611dc557829003601f168201915b505050505090806004018054611df790614f22565b80601f0160208091040260200160405190810160405280929190818152602001828054611e2390614f22565b8015611e6e5780601f10611e4557610100808354040283529160200191611e6e565b820191905f5260205f20905b815481529060010190602001808311611e5157829003601f168201915b5050505050908060050154905086565b5f600d5f8381526020019081526020015f205f015403611ed3576040517f08c379a0000000000000000000000000000000000000000000000000000000008152600401611eca906153d0565b60405180910390fd5b611edc816112b2565b15611f1c576040517f08c379a0000000000000000000000000000000000000000000000000000000008152600401611f139061545e565b60405180910390fd5b600d5f8281526020019081526020015f206009015f815480929190611f4090614ffc565b9190505550807f3e92b80b10e08c7af873b630b9789e2185d397ebfd2ef852e410f7da08a21bf3335f604051611f7792919061547c565b60405180910390a250565b6060600f82604051611f949190614f8c565b90815260200160405180910390205f9054906101000a900460ff168015611fbb57505f8251115b61200d575f67ffffffffffffffff811115611fd957611fd861471b565b5b6040519080825280602002602001820160405280156120075781602001602082028036833780820191505090505b50612017565b6120168261385b565b5b9050919050565b612029848484610e2f565b61203584848484613a7f565b50505050565b6011602052805f5260405f205f91509050805461205790614f22565b80601f016020809104026020016040519081016040528092919081815260200182805461208390614f22565b80156120ce5780601f106120a5576101008083540402835291602001916120ce565b820191905f5260205f20905b8154815290600101906020018083116120b157829003601f168201915b505050505081565b600f818051602081018201805184825260208301602085012081835280955050505050505f915054906101000a900460ff1681565b60605f60608060605f8061211e88610f2e565b90505f600e5f8373ffffffffffffffffffffffffffffffffffffffff1673ffffffffffffffffffffffffffffffffffffffff1681526020019081526020015f209050805f01816001015f9054906101000a900460ff16826002018360030184600401856005015485805461219190614f22565b80601f01602080910402602001604051908101604052809291908181526020018280546121bd90614f22565b80156122085780601f106121df57610100808354040283529160200191612208565b820191905f5260205f20905b8154815290600101906020018083116121eb57829003601f168201915b5050505050955083805461221b90614f22565b80601f016020809104026020016040519081016040528092919081815260200182805461224790614f22565b80156122925780601f1061226957610100808354040283529160200191612292565b820191905f5260205f20905b81548152906001019060200180831161227557829003601f168201915b505050505093508280546122a590614f22565b80601f01602080910402602001604051908101604052809291908181526020018280546122d190614f22565b801561231c5780601f106122f35761010080835404028352916020019161231c565b820191905f5260205f20905b8154815290600101906020018083116122ff57829003601f168201915b5050505050925081805461232f90614f22565b80601f016020809104026020016040519081016040528092919081815260200182805461235b90614f22565b80156123a65780601f1061237d576101008083540402835291602001916123a6565b820191905f5260205f20905b81548152906001019060200180831161238957829003601f168201915b50505050509150975097509750975097509750505091939550919395565b60606123cf82612e0a565b505f60065f8481526020019081526020015f2080546123ed90614f22565b80601f016020809104026020016040519081016040528092919081815260200182805461241990614f22565b80156124645780601f1061243b57610100808354040283529160200191612464565b820191905f5260205f20905b81548152906001019060200180831161244757829003601f168201915b505050505090505f612474613c31565b90505f8151036124885781925050506124ca565b5f825111156124bc5780826040516020016124a4929190615be1565b604051602081830303815290604052925050506124ca565b6124c584613c47565b925050505b919050565b601281815481106124de575f80fd5b905f5260205f20015f915054906101000a900473ffffffffffffffffffffffffffffffffffffffff1681565b60605f805f806060805f805f805f80600d5f8f81526020019081526020015f209050806007018160080154826009015483600a015f9054906101000a900460ff1684600b015485600c0186600101875f0154886002015f9054906101000a900473ffffffffffffffffffffffffffffffffffffffff16896003015f9054906101000a900473ffffffffffffffffffffffffffffffffffffffff168a600401548b6005015f9054906101000a900460ff168b805480602002602001604051908101604052809291908181526020015f905b82821015612682578382905f5260205f200180546125f790614f22565b80601f016020809104026020016040519081016040528092919081815260200182805461262390614f22565b801561266e5780601f106126455761010080835404028352916020019161266e565b820191905f5260205f20905b81548152906001019060200180831161265157829003601f168201915b5050505050815260200190600101906125da565b505050509b5086805461269490614f22565b80601f01602080910402602001604051908101604052809291908181526020018280546126c090614f22565b801561270b5780601f106126e25761010080835404028352916020019161270b565b820191905f5260205f20905b8154815290600101906020018083116126ee57829003601f168201915b5050505050965085805461271e90614f22565b80601f016020809104026020016040519081016040528092919081815260200182805461274a90614f22565b80156127955780601f1061276c57610100808354040283529160200191612795565b820191905f5260205f20905b81548152906001019060200180831161277857829003601f168201915b505050505095509c509c509c509c509c509c509c509c509c509c509c509c505091939597999b5091939597999b565b5f60055f8473ffffffffffffffffffffffffffffffffffffffff1673ffffffffffffffffffffffffffffffffffffffff1681526020019081526020015f205f8373ffffffffffffffffffffffffffffffffffffffff1673ffffffffffffffffffffffffffffffffffffffff1681526020019081526020015f205f9054906101000a900460ff16905092915050565b60605f61285f6007612d1d565b67ffffffffffffffff8111156128785761287761471b565b5b6040519080825280602002602001820160405280156128a65781602001602082028036833780820191505090505b5090505f80600190505b6128ba6007612d1d565b811161297b573373ffffffffffffffffffffffffffffffffffffffff16600d5f8381526020019081526020015f206002015f9054906101000a900473ffffffffffffffffffffffffffffffffffffffff1673ffffffffffffffffffffffffffffffffffffffff160361296857600d5f8281526020019081526020015f205f015483838151811061294d5761294c614fa2565b5b602002602001018181525050818061296490614ffc565b9250505b808061297390614ffc565b9150506128b0565b50808252819250505090565b5f600e5f3373ffffffffffffffffffffffffffffffffffffffff1673ffffffffffffffffffffffffffffffffffffffff1681526020019081526020015f205f0180546129d290614f22565b905014612a14576040517f08c379a0000000000000000000000000000000000000000000000000000000008152600401612a0b90615c4e565b60405180910390fd5b6040518060c00160405280868152602001851515815260200185612a465760405180602001604052805f815250612a48565b845b815260200185612a665760405180602001604052805f815250612a68565b835b815260200185612a865760405180602001604052805f815250612a88565b825b81526020015f815250600e5f3373ffffffffffffffffffffffffffffffffffffffff1673ffffffffffffffffffffffffffffffffffffffff1681526020019081526020015f205f820151815f019081612ae191906158be565b506020820151816001015f6101000a81548160ff0219169083151502179055506040820151816002019081612b1691906158be565b506060820151816003019081612b2c91906158be565b506080820151816004019081612b4291906158be565b5060a082015181600501559050508260115f3373ffffffffffffffffffffffffffffffffffffffff1673ffffffffffffffffffffffffffffffffffffffff1681526020019081526020015f209081612b9a91906158be565b50601233908060018154018082558091505060019003905f5260205f20015f9091909190916101000a81548173ffffffffffffffffffffffffffffffffffffffff021916908373ffffffffffffffffffffffffffffffffffffffff160217905550838015612c305750600f83604051612c139190614f8c565b90815260200160405180910390205f9054906101000a900460ff16155b15612cd5576001600f84604051612c479190614f8c565b90815260200160405180910390205f6101000a81548160ff021916908315150217905550601083908060018154018082558091505060019003905f5260205f20015f909190919091509081612c9c91906158be565b507f724dd4cd2e9166c5e23b019f09022009d1a014361e898adfd0fe39ef70a1157b83604051612ccc91906145d5565b60405180910390a15b7f93c4ec27aa5f4b6352cc738eeecd83248c5927d0be45f4e3eb832ec11bf40d3f853386868686604051612d0e96959493929190615c6c565b60405180910390a15050505050565b5f815f01549050919050565b5f7f80ac58cd000000000000000000000000000000000000000000000000000000007bffffffffffffffffffffffffffffffffffffffffffffffffffffffff1916827bffffffffffffffffffffffffffffffffffffffffffffffffffffffff19161480612df357507f5b5e139f000000000000000000000000000000000000000000000000000000007bffffffffffffffffffffffffffffffffffffffffffffffffffffffff1916827bffffffffffffffffffffffffffffffffffffffffffffffffffffffff1916145b80612e035750612e0282613cad565b5b9050919050565b5f80612e1583613d16565b90505f73ffffffffffffffffffffffffffffffffffffffff168173ffffffffffffffffffffffffffffffffffffffff1603612e8757826040517f7e273289000000000000000000000000000000000000000000000000000000008152600401612e7e919061496a565b60405180910390fd5b80915050919050565b5f60045f8381526020019081526020015f205f9054906101000a900473ffffffffffffffffffffffffffffffffffffffff169050919050565b5f33905090565b612edd8383836001613d4f565b505050565b5f80612eed84613d16565b90505f73ffffffffffffffffffffffffffffffffffffffff168373ffffffffffffffffffffffffffffffffffffffff1614612f2e57612f2d818486613f0e565b5b5f73ffffffffffffffffffffffffffffffffffffffff168173ffffffffffffffffffffffffffffffffffffffff1614612fb957612f6d5f855f80613d4f565b600160035f8373ffffffffffffffffffffffffffffffffffffffff1673ffffffffffffffffffffffffffffffffffffffff1681526020019081526020015f205f82825403925050819055505b5f73ffffffffffffffffffffffffffffffffffffffff168573ffffffffffffffffffffffffffffffffffffffff161461303857600160035f8773ffffffffffffffffffffffffffffffffffffffff1673ffffffffffffffffffffffffffffffffffffffff1681526020019081526020015f205f82825401925050819055505b8460025f8681526020019081526020015f205f6101000a81548173ffffffffffffffffffffffffffffffffffffffff021916908373ffffffffffffffffffffffffffffffffffffffff160217905550838573ffffffffffffffffffffffffffffffffffffffff168273ffffffffffffffffffffffffffffffffffffffff167fddf252ad1be2c89b69c2b068fc378daa952ba7f163c4a11628f55a4df523b3ef60405160405180910390a4809150509392505050565b5f73ffffffffffffffffffffffffffffffffffffffff168273ffffffffffffffffffffffffffffffffffffffff160361315d575f6040517f64a0ae920000000000000000000000000000000000000000000000000000000081526004016131549190614692565b60405180910390fd5b5f61316983835f612ee2565b90505f73ffffffffffffffffffffffffffffffffffffffff168173ffffffffffffffffffffffffffffffffffffffff16036131db57816040517f7e2732890000000000000000000000000000000000000000000000000000000081526004016131d2919061496a565b60405180910390fd5b8373ffffffffffffffffffffffffffffffffffffffff168173ffffffffffffffffffffffffffffffffffffffff161461324f578382826040517f64283d7b000000000000000000000000000000000000000000000000000000008152600401613246939291906152c3565b60405180910390fd5b50505050565b6001815f015f828254019250508190555050565b5f73ffffffffffffffffffffffffffffffffffffffff168273ffffffffffffffffffffffffffffffffffffffff16036132d9575f6040517f64a0ae920000000000000000000000000000000000000000000000000000000081526004016132d09190614692565b60405180910390fd5b5f6132e583835f612ee2565b90505f73ffffffffffffffffffffffffffffffffffffffff168173ffffffffffffffffffffffffffffffffffffffff1614613357575f6040517f73c6ac6e00000000000000000000000000000000000000000000000000000000815260040161334e9190614692565b60405180910390fd5b505050565b8060065f8481526020019081526020015f20908161337a91906158be565b507ff8e1a15aba9398e019f0b49df1a4fde98ee17ae345cb5f6b5e2c27f5033e8ce7826040516133aa919061496a565b60405180910390a15050565b5f80600d5f8581526020019081526020015f2060060180546133d790614f22565b90501180156134445750816040516020016133f29190614f8c565b60405160208183030381529060405280519060200120600d5f8581526020019081526020015f2060060160405160200161342c91906151f1565b60405160208183030381529060405280519060200120145b905092915050565b604051806101a001604052808581526020018281526020013373ffffffffffffffffffffffffffffffffffffffff1681526020013373ffffffffffffffffffffffffffffffffffffffff1681526020018481526020015f151581526020018381526020015f67ffffffffffffffff8111156134ca576134c961471b565b5b6040519080825280602002602001820160405280156134fd57816020015b60608152602001906001900390816134e85790505b5081526020015f81526020015f81526020015f1515815260200142815260200160405180602001604052805f815250815250600d5f8681526020019081526020015f205f820151815f0155602082015181600101908161355d91906158be565b506040820151816002015f6101000a81548173ffffffffffffffffffffffffffffffffffffffff021916908373ffffffffffffffffffffffffffffffffffffffff1602179055506060820151816003015f6101000a81548173ffffffffffffffffffffffffffffffffffffffff021916908373ffffffffffffffffffffffffffffffffffffffff1602179055506080820151816004015560a0820151816005015f6101000a81548160ff02191690831515021790555060c082015181600601908161362891906158be565b5060e08201518160070190805190602001906136459291906142ac565b506101008201518160080155610120820151816009015561014082015181600a015f6101000a81548160ff02191690831515021790555061016082015181600b015561018082015181600c01908161369d91906158be565b509050506136ac3330866130ed565b837fddaeb01fb1ddce9789e64660541353c5a90fdd3e87ad074757173128396df0213330865f876040516136e4959493929190615ce7565b60405180910390a250505050565b5f73ffffffffffffffffffffffffffffffffffffffff168273ffffffffffffffffffffffffffffffffffffffff160361376257816040517f5b08ba180000000000000000000000000000000000000000000000000000000081526004016137599190614692565b60405180910390fd5b8060055f8573ffffffffffffffffffffffffffffffffffffffff1673ffffffffffffffffffffffffffffffffffffffff1681526020019081526020015f205f8473ffffffffffffffffffffffffffffffffffffffff1673ffffffffffffffffffffffffffffffffffffffff1681526020019081526020015f205f6101000a81548160ff0219169083151502179055508173ffffffffffffffffffffffffffffffffffffffff168373ffffffffffffffffffffffffffffffffffffffff167f17307eab39ab6107e8899845ad3d59bd9653f200f220920489ca2b5937696c318360405161384e9190614574565b60405180910390a3505050565b6060805f80600190505b61386f6007612d1d565b8111613929575f600d5f8381526020019081526020015f20600601805461389590614f22565b90501180156139025750846040516020016138b09190614f8c565b60405160208183030381529060405280519060200120600d5f8381526020019081526020015f206006016040516020016138ea91906151f1565b60405160208183030381529060405280519060200120145b1561391657818061391290614ffc565b9250505b808061392190614ffc565b915050613865565b508067ffffffffffffffff8111156139445761394361471b565b5b6040519080825280602002602001820160405280156139725781602001602082028036833780820191505090505b5091505f80600190505b6139866007612d1d565b8111613a73575f600d5f8381526020019081526020015f2060060180546139ac90614f22565b9050118015613a195750856040516020016139c79190614f8c565b60405160208183030381529060405280519060200120600d5f8381526020019081526020015f20600601604051602001613a0191906151f1565b60405160208183030381529060405280519060200120145b15613a6057600d5f8281526020019081526020015f205f0154848381518110613a4557613a44614fa2565b5b6020026020010181815250508180613a5c90614ffc565b9250505b8080613a6b90614ffc565b91505061397c565b50829350505050919050565b5f8373ffffffffffffffffffffffffffffffffffffffff163b1115613c2b578273ffffffffffffffffffffffffffffffffffffffff1663150b7a02613ac2612ec9565b8685856040518563ffffffff1660e01b8152600401613ae49493929190615d91565b6020604051808303815f875af1925050508015613b1f57506040513d601f19601f82011682018060405250810190613b1c9190615def565b60015b613ba0573d805f8114613b4d576040519150601f19603f3d011682016040523d82523d5f602084013e613b52565b606091505b505f815103613b9857836040517f64a0ae92000000000000000000000000000000000000000000000000000000008152600401613b8f9190614692565b60405180910390fd5b805181602001fd5b63150b7a0260e01b7bffffffffffffffffffffffffffffffffffffffffffffffffffffffff1916817bffffffffffffffffffffffffffffffffffffffffffffffffffffffff191614613c2957836040517f64a0ae92000000000000000000000000000000000000000000000000000000008152600401613c209190614692565b60405180910390fd5b505b50505050565b606060405180602001604052805f815250905090565b6060613c5282612e0a565b505f613c5c613c31565b90505f815111613c7a5760405180602001604052805f815250613ca5565b80613c8484613fd1565b604051602001613c95929190615be1565b6040516020818303038152906040525b915050919050565b5f7f01ffc9a7000000000000000000000000000000000000000000000000000000007bffffffffffffffffffffffffffffffffffffffffffffffffffffffff1916827bffffffffffffffffffffffffffffffffffffffffffffffffffffffff1916149050919050565b5f60025f8381526020019081526020015f205f9054906101000a900473ffffffffffffffffffffffffffffffffffffffff169050919050565b8080613d8757505f73ffffffffffffffffffffffffffffffffffffffff168273ffffffffffffffffffffffffffffffffffffffff1614155b15613eb9575f613d9684612e0a565b90505f73ffffffffffffffffffffffffffffffffffffffff168373ffffffffffffffffffffffffffffffffffffffff1614158015613e0057508273ffffffffffffffffffffffffffffffffffffffff168173ffffffffffffffffffffffffffffffffffffffff1614155b8015613e135750613e1181846127c4565b155b15613e5557826040517fa9fbf51f000000000000000000000000000000000000000000000000000000008152600401613e4c9190614692565b60405180910390fd5b8115613eb757838573ffffffffffffffffffffffffffffffffffffffff168273ffffffffffffffffffffffffffffffffffffffff167f8c5be1e5ebec7d5bd14f71427d1e84f3dd0314c0f7b2291e5b200ac8c7c3b92560405160405180910390a45b505b8360045f8581526020019081526020015f205f6101000a81548173ffffffffffffffffffffffffffffffffffffffff021916908373ffffffffffffffffffffffffffffffffffffffff16021790555050505050565b613f1983838361409b565b613fcc575f73ffffffffffffffffffffffffffffffffffffffff168373ffffffffffffffffffffffffffffffffffffffff1603613f8d57806040517f7e273289000000000000000000000000000000000000000000000000000000008152600401613f84919061496a565b60405180910390fd5b81816040517f177e802f000000000000000000000000000000000000000000000000000000008152600401613fc3929190615e1a565b60405180910390fd5b505050565b60605f6001613fdf8461415b565b0190505f8167ffffffffffffffff811115613ffd57613ffc61471b565b5b6040519080825280601f01601f19166020018201604052801561402f5781602001600182028036833780820191505090505b5090505f82602001820190505b600115614090578080600190039150507f3031323334353637383961626364656600000000000000000000000000000000600a86061a8153600a85816140855761408461561c565b5b0494505f850361403c575b819350505050919050565b5f8073ffffffffffffffffffffffffffffffffffffffff168373ffffffffffffffffffffffffffffffffffffffff161415801561415257508273ffffffffffffffffffffffffffffffffffffffff168473ffffffffffffffffffffffffffffffffffffffff161480614113575061411284846127c4565b5b8061415157508273ffffffffffffffffffffffffffffffffffffffff1661413983612e90565b73ffffffffffffffffffffffffffffffffffffffff16145b5b90509392505050565b5f805f90507a184f03e93ff9f4daa797ed6e38ed64bf6a1f01000000000000000083106141b7577a184f03e93ff9f4daa797ed6e38ed64bf6a1f01000000000000000083816141ad576141ac61561c565b5b0492506040810190505b6d04ee2d6d415b85acef810000000083106141f4576d04ee2d6d415b85acef810000000083816141ea576141e961561c565b5b0492506020810190505b662386f26fc10000831061422357662386f26fc1000083816142195761421861561c565b5b0492506010810190505b6305f5e100831061424c576305f5e10083816142425761424161561c565b5b0492506008810190505b61271083106142715761271083816142675761426661561c565b5b0492506004810190505b60648310614294576064838161428a5761428961561c565b5b0492506002810190505b600a83106142a3576001810190505b80915050919050565b828054828255905f5260205f209081019282156142f2579160200282015b828111156142f15782518290816142e191906158be565b50916020019190600101906142ca565b5b5090506142ff9190614303565b5090565b5b80821115614322575f81816143199190614326565b50600101614304565b5090565b50805461433290614f22565b5f825580601f106143435750614360565b601f0160209004905f5260205f209081019061435f9190614363565b5b50565b5b8082111561437a575f815f905550600101614364565b5090565b5f81519050919050565b5f82825260208201905092915050565b5f819050602082019050919050565b5f81519050919050565b5f82825260208201905092915050565b8281835e5f83830152505050565b5f601f19601f8301169050919050565b5f6143e9826143a7565b6143f381856143b1565b93506144038185602086016143c1565b61440c816143cf565b840191505092915050565b5f61442283836143df565b905092915050565b5f602082019050919050565b5f6144408261437e565b61444a8185614388565b93508360208202850161445c85614398565b805f5b8581101561449757848403895281516144788582614417565b94506144838361442a565b925060208a0199505060018101905061445f565b50829750879550505050505092915050565b5f6020820190508181035f8301526144c18184614436565b905092915050565b5f604051905090565b5f80fd5b5f80fd5b5f7fffffffff0000000000000000000000000000000000000000000000000000000082169050919050565b61450e816144da565b8114614518575f80fd5b50565b5f8135905061452981614505565b92915050565b5f60208284031215614544576145436144d2565b5b5f6145518482850161451b565b91505092915050565b5f8115159050919050565b61456e8161455a565b82525050565b5f6020820190506145875f830184614565565b92915050565b5f82825260208201905092915050565b5f6145a7826143a7565b6145b1818561458d565b93506145c18185602086016143c1565b6145ca816143cf565b840191505092915050565b5f6020820190508181035f8301526145ed818461459d565b905092915050565b5f819050919050565b614607816145f5565b8114614611575f80fd5b50565b5f81359050614622816145fe565b92915050565b5f6020828403121561463d5761463c6144d2565b5b5f61464a84828501614614565b91505092915050565b5f73ffffffffffffffffffffffffffffffffffffffff82169050919050565b5f61467c82614653565b9050919050565b61468c81614672565b82525050565b5f6020820190506146a55f830184614683565b92915050565b6146b481614672565b81146146be575f80fd5b50565b5f813590506146cf816146ab565b92915050565b5f80604083850312156146eb576146ea6144d2565b5b5f6146f8858286016146c1565b925050602061470985828601614614565b9150509250929050565b5f80fd5b5f80fd5b7f4e487b71000000000000000000000000000000000000000000000000000000005f52604160045260245ffd5b614751826143cf565b810181811067ffffffffffffffff821117156147705761476f61471b565b5b80604052505050565b5f6147826144c9565b905061478e8282614748565b919050565b5f67ffffffffffffffff8211156147ad576147ac61471b565b5b6147b6826143cf565b9050602081019050919050565b828183375f83830152505050565b5f6147e36147de84614793565b614779565b9050828152602081018484840111156147ff576147fe614717565b5b61480a8482856147c3565b509392505050565b5f82601f83011261482657614825614713565b5b81356148368482602086016147d1565b91505092915050565b5f8060408385031215614855576148546144d2565b5b5f61486285828601614614565b925050602083013567ffffffffffffffff811115614883576148826144d6565b5b61488f85828601614812565b9150509250929050565b5f805f606084860312156148b0576148af6144d2565b5b5f6148bd868287016146c1565b93505060206148ce868287016146c1565b92505060406148df86828701614614565b9150509250925092565b5f602082840312156148fe576148fd6144d2565b5b5f82013567ffffffffffffffff81111561491b5761491a6144d6565b5b61492784828501614812565b91505092915050565b5f60208284031215614945576149446144d2565b5b5f614952848285016146c1565b91505092915050565b614964816145f5565b82525050565b5f60208201905061497d5f83018461495b565b92915050565b5f805f6060848603121561499a576149996144d2565b5b5f84013567ffffffffffffffff8111156149b7576149b66144d6565b5b6149c386828701614812565b93505060206149d486828701614614565b925050604084013567ffffffffffffffff8111156149f5576149f46144d6565b5b614a0186828701614812565b9150509250925092565b614a148161455a565b8114614a1e575f80fd5b50565b5f81359050614a2f81614a0b565b92915050565b5f8060408385031215614a4b57614a4a6144d2565b5b5f614a58858286016146c1565b9250506020614a6985828601614a21565b9150509250929050565b5f60c0820190508181035f830152614a8b818961459d565b9050614a9a6020830188614565565b8181036040830152614aac818761459d565b90508181036060830152614ac0818661459d565b90508181036080830152614ad4818561459d565b9050614ae360a083018461495b565b979650505050505050565b5f81519050919050565b5f82825260208201905092915050565b5f819050602082019050919050565b614b20816145f5565b82525050565b5f614b318383614b17565b60208301905092915050565b5f602082019050919050565b5f614b5382614aee565b614b5d8185614af8565b9350614b6883614b08565b805f5b83811015614b98578151614b7f8882614b26565b9750614b8a83614b3d565b925050600181019050614b6b565b5085935050505092915050565b5f6020820190508181035f830152614bbd8184614b49565b905092915050565b5f67ffffffffffffffff821115614bdf57614bde61471b565b5b614be8826143cf565b9050602081019050919050565b5f614c07614c0284614bc5565b614779565b905082815260208101848484011115614c2357614c22614717565b5b614c2e8482856147c3565b509392505050565b5f82601f830112614c4a57614c49614713565b5b8135614c5a848260208601614bf5565b91505092915050565b5f805f8060808587031215614c7b57614c7a6144d2565b5b5f614c88878288016146c1565b9450506020614c99878288016146c1565b9350506040614caa87828801614614565b925050606085013567ffffffffffffffff811115614ccb57614cca6144d6565b5b614cd787828801614c36565b91505092959194509250565b5f614ced82614653565b9050919050565b614cfd81614ce3565b82525050565b5f610180820190508181035f830152614d1c818f614436565b9050614d2b602083018e61495b565b614d38604083018d61495b565b614d45606083018c614565565b614d52608083018b61495b565b81810360a0830152614d64818a61459d565b905081810360c0830152614d78818961459d565b9050614d8760e083018861495b565b614d95610100830187614cf4565b614da3610120830186614cf4565b614db161014083018561495b565b614dbf610160830184614565565b9d9c50505050505050505050505050565b5f8060408385031215614de657614de56144d2565b5b5f614df3858286016146c1565b9250506020614e04858286016146c1565b9150509250929050565b5f805f805f60a08688031215614e2757614e266144d2565b5b5f86013567ffffffffffffffff811115614e4457614e436144d6565b5b614e5088828901614812565b9550506020614e6188828901614a21565b945050604086013567ffffffffffffffff811115614e8257614e816144d6565b5b614e8e88828901614812565b935050606086013567ffffffffffffffff811115614eaf57614eae6144d6565b5b614ebb88828901614812565b925050608086013567ffffffffffffffff811115614edc57614edb6144d6565b5b614ee888828901614812565b9150509295509295909350565b7f4e487b71000000000000000000000000000000000000000000000000000000005f52602260045260245ffd5b5f6002820490506001821680614f3957607f821691505b602082108103614f4c57614f4b614ef5565b5b50919050565b5f81905092915050565b5f614f66826143a7565b614f708185614f52565b9350614f808185602086016143c1565b80840191505092915050565b5f614f978284614f5c565b915081905092915050565b7f4e487b71000000000000000000000000000000000000000000000000000000005f52603260045260245ffd5b7f4e487b71000000000000000000000000000000000000000000000000000000005f52601160045260245ffd5b5f615006826145f5565b91507fffffffffffffffffffffffffffffffffffffffffffffffffffffffffffffffff820361503857615037614fcf565b5b600182019050919050565b7f596f7520617265206e6f7420746865206f776e6572206f662074686973204e465f8201527f5400000000000000000000000000000000000000000000000000000000000000602082015250565b5f61509d60218361458d565b91506150a882615043565b604082019050919050565b5f6020820190508181035f8301526150ca81615091565b9050919050565b7f427573696e65737320646f6d61696e206973206e6f74207265676973746572655f8201527f6400000000000000000000000000000000000000000000000000000000000000602082015250565b5f61512b60218361458d565b9150615136826150d1565b604082019050919050565b5f6020820190508181035f8301526151588161511f565b9050919050565b5f819050815f5260205f209050919050565b5f815461517d81614f22565b6151878186614f52565b9450600182165f81146151a157600181146151b6576151e8565b60ff19831686528115158202860193506151e8565b6151bf8561515f565b5f5b838110156151e0578154818901526001820191506020810190506151c1565b838801955050505b50505092915050565b5f6151fc8284615171565b915081905092915050565b7f4e4654206973206e6f74206173736f63696174656420776974682074686973205f8201527f646f6d61696e0000000000000000000000000000000000000000000000000000602082015250565b5f61526160268361458d565b915061526c82615207565b604082019050919050565b5f6020820190508181035f83015261528e81615255565b9050919050565b5f6040820190506152a85f83018561495b565b81810360208301526152ba818461459d565b90509392505050565b5f6060820190506152d65f830186614683565b6152e3602083018561495b565b6152f06040830184614683565b949350505050565b7f4e6f207573657220666f756e6420666f722074686520676976656e20627573695f8201527f6e65737320646f6d61696e000000000000000000000000000000000000000000602082015250565b5f615352602b8361458d565b915061535d826152f8565b604082019050919050565b5f6020820190508181035f83015261537f81615346565b9050919050565b7f52657669657720646f6573206e6f7420657869737400000000000000000000005f82015250565b5f6153ba60158361458d565b91506153c582615386565b602082019050919050565b5f6020820190508181035f8301526153e7816153ae565b9050919050565b7f557365722068617320616c726561647920766f74656420666f722074686973205f8201527f7265766965770000000000000000000000000000000000000000000000000000602082015250565b5f61544860268361458d565b9150615453826153ee565b604082019050919050565b5f6020820190508181035f8301526154758161543c565b9050919050565b5f60408201905061548f5f830185614683565b61549c6020830184614565565b9392505050565b7f4e465420646f6573206e6f7420657869737400000000000000000000000000005f82015250565b5f6154d760128361458d565b91506154e2826154a3565b602082019050919050565b5f6020820190508181035f830152615504816154cb565b9050919050565b7f4e465420616c726561647920736f6c64000000000000000000000000000000005f82015250565b5f61553f60108361458d565b915061554a8261550b565b602082019050919050565b5f6020820190508181035f83015261556c81615533565b9050919050565b7f496e73756666696369656e742066756e647300000000000000000000000000005f82015250565b5f6155a760128361458d565b91506155b282615573565b602082019050919050565b5f6020820190508181035f8301526155d48161559b565b9050919050565b5f6155e5826145f5565b91506155f0836145f5565b92508282026155fe816145f5565b9150828204841483151761561557615614614fcf565b5b5092915050565b7f4e487b71000000000000000000000000000000000000000000000000000000005f52601260045260245ffd5b5f615653826145f5565b915061565e836145f5565b92508261566e5761566d61561c565b5b828204905092915050565b5f615683826145f5565b915061568e836145f5565b92508282039050818111156156a6576156a5614fcf565b5b92915050565b5f819050919050565b5f6156cf6156ca6156c584614653565b6156ac565b614653565b9050919050565b5f6156e0826156b5565b9050919050565b5f6156f1826156d6565b9050919050565b615701816156e7565b82525050565b5f60608201905061571a5f8301866156f8565b6157276020830185614683565b615734604083018461495b565b949350505050565b5f6020601f8301049050919050565b5f82821b905092915050565b5f600883026157867fffffffffffffffffffffffffffffffffffffffffffffffffffffffffffffffff8261574b565b615790868361574b565b95508019841693508086168417925050509392505050565b5f6157c26157bd6157b8846145f5565b6156ac565b6145f5565b9050919050565b5f819050919050565b6157db836157a8565b6157ef6157e7826157c9565b848454615757565b825550505050565b5f90565b6158036157f7565b61580e8184846157d2565b505050565b5b81811015615831576158265f826157fb565b600181019050615814565b5050565b601f821115615876576158478161515f565b6158508461573c565b8101602085101561585f578190505b61587361586b8561573c565b830182615813565b50505b505050565b5f82821c905092915050565b5f6158965f198460080261587b565b1980831691505092915050565b5f6158ae8383615887565b9150826002028217905092915050565b6158c7826143a7565b67ffffffffffffffff8111156158e0576158df61471b565b5b6158ea8254614f22565b6158f5828285615835565b5f60209050601f831160018114615926575f8415615914578287015190505b61591e85826158a3565b865550615985565b601f1984166159348661515f565b5f5b8281101561595b57848901518255600182019150602085019450602081019050615936565b868310156159785784890151615974601f891682615887565b8355505b6001600288020188555050505b505050505050565b7f427573696e65737320646f6d61696e20697320726571756972656400000000005f82015250565b5f6159c1601b8361458d565b91506159cc8261598d565b602082019050919050565b5f6020820190508181035f8301526159ee816159b5565b9050919050565b7f546f6b656e2055524920697320726571756972656400000000000000000000005f82015250565b5f615a2960158361458d565b9150615a34826159f5565b602082019050919050565b5f6020820190508181035f830152615a5681615a1d565b9050919050565b7f5072696365206d757374206265206174206c65617374203100000000000000005f82015250565b5f615a9160188361458d565b9150615a9c82615a5d565b602082019050919050565b5f6020820190508181035f830152615abe81615a85565b9050919050565b7f5072696365206d75737420626520657175616c20746f206c697374696e6720705f8201527f7269636500000000000000000000000000000000000000000000000000000000602082015250565b5f615b1f60248361458d565b9150615b2a82615ac5565b604082019050919050565b5f6020820190508181035f830152615b4c81615b13565b9050919050565b7f4e465420697320616c7265616479206173736f636961746564207769746820745f8201527f68697320646f6d61696e00000000000000000000000000000000000000000000602082015250565b5f615bad602a8361458d565b9150615bb882615b53565b604082019050919050565b5f6020820190508181035f830152615bda81615ba1565b9050919050565b5f615bec8285614f5c565b9150615bf88284614f5c565b91508190509392505050565b7f5573657220616c726561647920726567697374657265640000000000000000005f82015250565b5f615c3860178361458d565b9150615c4382615c04565b602082019050919050565b5f6020820190508181035f830152615c6581615c2c565b9050919050565b5f60c0820190508181035f830152615c84818961459d565b9050615c936020830188614683565b615ca06040830187614565565b8181036060830152615cb2818661459d565b90508181036080830152615cc6818561459d565b905081810360a0830152615cda818461459d565b9050979650505050505050565b5f60a082019050615cfa5f830188614683565b615d076020830187614683565b615d14604083018661495b565b615d216060830185614565565b8181036080830152615d33818461459d565b90509695505050505050565b5f81519050919050565b5f82825260208201905092915050565b5f615d6382615d3f565b615d6d8185615d49565b9350615d7d8185602086016143c1565b615d86816143cf565b840191505092915050565b5f608082019050615da45f830187614683565b615db16020830186614683565b615dbe604083018561495b565b8181036060830152615dd08184615d59565b905095945050505050565b5f81519050615de981614505565b92915050565b5f60208284031215615e0457615e036144d2565b5b5f615e1184828501615ddb565b91505092915050565b5f604082019050615e2d5f830185614683565b615e3a602083018461495b565b939250505056fea2646970667358221220ff25e1e93403c8e4a5326a3bc09fa986dd36c2f4f5ffab3142464846f6bc234064736f6c634300081a0033",
  "immutableReferences": {},
  "source": "// SPDX-License-Identifier: UNLICENSED\r\npragma solidity ^0.8.4;\r\npragma experimental ABIEncoderV2;\r\n\r\nimport \"@openzeppelin/contracts/utils/Counters.sol\";\r\nimport \"@openzeppelin/contracts/token/ERC721/extensions/ERC721URIStorage.sol\";\r\nimport \"@openzeppelin/contracts/token/ERC721/ERC721.sol\";\r\n\r\ncontract UserAndNFTMarketplace is ERC721URIStorage {\r\n    using Counters for Counters.Counter;\r\n\r\n    Counters.Counter private _tokenIds;\r\n    Counters.Counter private _itemsSold;\r\n\r\n    uint256 listingPrice = 0.001 ether;\r\n\r\n    uint256 ownerCommissionPercentage = 15;\r\n    uint256 creatorCommissionPercentage = 1000 - ownerCommissionPercentage;\r\n\r\n    address payable owner;\r\n\r\n    mapping(uint256 => MarketItem) private idToMarketItem;\r\n    mapping(address => User) public users;\r\n    mapping(string => bool) public registeredDomains;\r\n    string[] public registeredDomainsArray;\r\n    mapping(address => string) public AlluserDomians;\r\n    address[] public Allusers;\r\n\r\n    struct MarketItem {\r\n        uint256 tokenId;\r\n        string tokenURI;\r\n        address payable seller;\r\n        address payable owner;\r\n        uint256 price;\r\n        bool sold;\r\n        string businessDomain;\r\n        string[] comments;\r\n        uint256 upvotes;\r\n        uint256 downvotes;\r\n        bool moderated;\r\n        uint256 timestamp;\r\n        string category;\r\n        // Add other metadata fields as needed\r\n    }\r\n\r\n    struct User {\r\n        string username;\r\n        bool isBusiness;\r\n        string businessDomain;\r\n        string businessDescription;\r\n        string businessCategory;\r\n        uint256 reputation;\r\n        // Add other user details as needed\r\n    }\r\n\r\n    event MarketItemCreated(\r\n        uint256 indexed tokenId,\r\n        address seller,\r\n        address owner,\r\n        uint256 price,\r\n        bool sold,\r\n        string businessDomain\r\n    );\r\n\r\n    event UserRegistered(\r\n        string username,\r\n        address userAddress,\r\n        bool isBusiness,\r\n        string businessDomain,\r\n        string businessDescription,\r\n        string businessCategory\r\n    );\r\n    event NFTDelisted(uint256 tokenId, string businessDomain);\r\n\r\n    event ReviewVoted(uint256 indexed tokenId, address voter, bool isUpvote);\r\n    event DomainRegistered(string domain);\r\n    event MarketItemSold(\r\n        uint256 indexed tokenId,\r\n        address seller,\r\n        address buyer,\r\n        uint256 price\r\n    );\r\n\r\n    constructor() ERC721(\"Artbyte\", \"ART\") {\r\n        owner = payable(msg.sender);\r\n    }\r\n\r\n    function getOwnerShare(uint256 x) private view returns (uint256) {\r\n        return (x / 1000) * ownerCommissionPercentage;\r\n    }\r\n\r\n    function getCreatorShare(uint256 x) private view returns (uint256) {\r\n        return (x / 1000) * creatorCommissionPercentage;\r\n    }\r\n\r\n    function registerUser(\r\n        string memory _username,\r\n        bool _isBusiness,\r\n        string memory _businessDomain,\r\n        string memory _businessDescription,\r\n        string memory _businessCategory\r\n    ) public {\r\n        require(\r\n            bytes(users[msg.sender].username).length == 0,\r\n            \"User already registered\"\r\n        );\r\n\r\n        users[msg.sender] = User({\r\n            username: _username,\r\n            isBusiness: _isBusiness,\r\n            businessDomain: _isBusiness ? _businessDomain : \"\",\r\n            businessDescription: _isBusiness ? _businessDescription : \"\",\r\n            businessCategory: _isBusiness ? _businessCategory : \"\",\r\n            reputation: 0\r\n        });\r\n        AlluserDomians[msg.sender] = _businessDomain;\r\n        Allusers.push(msg.sender);\r\n        if (_isBusiness && !registeredDomains[_businessDomain]) {\r\n            // Set the business domain as registered during user registration\r\n            registeredDomains[_businessDomain] = true;\r\n            registeredDomainsArray.push(_businessDomain);\r\n            emit DomainRegistered(_businessDomain);\r\n        }\r\n\r\n        emit UserRegistered(\r\n            _username,\r\n            msg.sender,\r\n            _isBusiness,\r\n            _businessDomain,\r\n            _businessDescription,\r\n            _businessCategory\r\n        );\r\n    }\r\n\r\n    function getRegisteredDomains() public view returns (string[] memory) {\r\n        return registeredDomainsArray;\r\n    }\r\n\r\n    // function createReviewNFT(\r\n    //     string memory tokenURI,\r\n    //     uint256 price,\r\n    //     string memory businessDomain\r\n    // ) public payable returns (uint) {\r\n    //     require(\r\n    //         bytes(businessDomain).length > 0,\r\n    //         \"Business domain is required\"\r\n    //     );\r\n    //     require(bytes(tokenURI).length > 0, \"Token URI is required\");\r\n    //     require(price > 0, \"Price must be at least 1\");\r\n    //     // require(msg.value == listingPrice, \"Price must be equal to listing price\");\r\n\r\n    //     _tokenIds.increment();\r\n\r\n    //     uint256 newTokenId = _tokenIds.current();\r\n\r\n    //     _mint(msg.sender, newTokenId);\r\n    //     _setTokenURI(newTokenId, tokenURI);\r\n\r\n    //     // Check if the domain is registered before associating the NFT\r\n    //     require(\r\n    //         registeredDomains[businessDomain],\r\n    //         \"Business domain is not registered\"\r\n    //     );\r\n\r\n    //     // Check if the NFT is not already associated with this domain\r\n    //     require(\r\n    //         !isNFTAssociatedWithDomain(newTokenId, businessDomain),\r\n    //         \"NFT is already associated with this domain\"\r\n    //     );\r\n\r\n    //     createMarketItem(newTokenId, price, businessDomain, tokenURI);\r\n\r\n    //     return newTokenId;\r\n    // }\r\n    function createReviewNFT(\r\n        string memory tokenURI,\r\n        uint256 price,\r\n        string memory businessDomain\r\n    ) public payable returns (uint) {\r\n        require(\r\n            bytes(businessDomain).length > 0,\r\n            \"Business domain is required\"\r\n        );\r\n        require(bytes(tokenURI).length > 0, \"Token URI is required\");\r\n        require(price > 0, \"Price must be at least 1\");\r\n        // require(msg.value == listingPrice, \"Price must be equal to listing price\");\r\n        // Check if the sender has sent the exact listing price\r\n        require(\r\n            msg.value == listingPrice,\r\n            \"Price must be equal to listing price\"\r\n        );\r\n\r\n        // Transfer 0.025 ether to the owner of the contract\r\n        owner.transfer(listingPrice);\r\n        _tokenIds.increment();\r\n\r\n        uint256 newTokenId = _tokenIds.current();\r\n\r\n        _mint(msg.sender, newTokenId);\r\n        _setTokenURI(newTokenId, tokenURI);\r\n\r\n        // Check if the domain is registered before associating the NFT\r\n        require(\r\n            registeredDomains[businessDomain],\r\n            \"Business domain is not registered\"\r\n        );\r\n\r\n        // Check if the NFT is not already associated with this domain\r\n        require(\r\n            !isNFTAssociatedWithDomain(newTokenId, businessDomain),\r\n            \"NFT is already associated with this domain\"\r\n        );\r\n\r\n        createMarketItem(newTokenId, price, businessDomain, tokenURI);\r\n\r\n        return newTokenId;\r\n    }\r\n\r\n    function isNFTAssociatedWithDomain(\r\n        uint256 tokenId,\r\n        string memory businessDomain\r\n    ) private view returns (bool) {\r\n        return\r\n            bytes(idToMarketItem[tokenId].businessDomain).length > 0 &&\r\n            keccak256(\r\n                abi.encodePacked(idToMarketItem[tokenId].businessDomain)\r\n            ) ==\r\n            keccak256(abi.encodePacked(businessDomain));\r\n    }\r\n\r\n    function createMarketItem(\r\n        uint256 tokenId,\r\n        uint256 price,\r\n        string memory businessDomain,\r\n        string memory tokenURI\r\n    ) private {\r\n        idToMarketItem[tokenId] = MarketItem({\r\n            tokenId: tokenId,\r\n            tokenURI: tokenURI,\r\n            seller: payable(msg.sender),\r\n            owner: payable(msg.sender),\r\n            price: price,\r\n            sold: false,\r\n            businessDomain: businessDomain,\r\n            comments: new string[](0),\r\n            upvotes: 0,\r\n            downvotes: 0,\r\n            moderated: false,\r\n            timestamp: block.timestamp,\r\n            category: \"\"\r\n        });\r\n\r\n        _transfer(msg.sender, address(this), tokenId);\r\n\r\n        emit MarketItemCreated(\r\n            tokenId,\r\n            msg.sender,\r\n            address(this),\r\n            price,\r\n            false,\r\n            businessDomain\r\n        );\r\n    }\r\n\r\n    function fetchBusinessDomains() public view returns (string[] memory) {\r\n        uint count = getRegisteredDomainCount();\r\n        string[] memory businessDomains = new string[](count);\r\n        uint currentIndex = 0;\r\n\r\n        for (uint i = 1; i <= _tokenIds.current(); i++) {\r\n            string memory currentDomain = idToMarketItem[i].businessDomain;\r\n            if (\r\n                bytes(currentDomain).length > 0 &&\r\n                registeredDomains[currentDomain]\r\n            ) {\r\n                businessDomains[currentIndex] = currentDomain;\r\n                currentIndex++;\r\n            }\r\n        }\r\n\r\n        return businessDomains;\r\n    }\r\n\r\n    function getRegisteredDomainCount() public view returns (uint) {\r\n        uint count = 0;\r\n        for (uint i = 1; i <= _tokenIds.current(); i++) {\r\n            if (registeredDomains[idToMarketItem[i].businessDomain]) {\r\n                count++;\r\n            }\r\n        }\r\n        return count;\r\n    }\r\n\r\n    function fetchNFTsByDomain(\r\n        string memory businessDomain\r\n    ) public view returns (uint256[] memory) {\r\n        return\r\n            registeredDomains[businessDomain] &&\r\n                bytes(businessDomain).length > 0\r\n                ? getNFTsByDomain(businessDomain)\r\n                : new uint256[](0);\r\n    }\r\n\r\n    function getNFTsByDomain(\r\n        string memory businessDomain\r\n    ) private view returns (uint256[] memory) {\r\n        uint256[] memory nfts;\r\n        uint count = 0;\r\n\r\n        for (uint i = 1; i <= _tokenIds.current(); i++) {\r\n            if (\r\n                bytes(idToMarketItem[i].businessDomain).length > 0 &&\r\n                keccak256(abi.encodePacked(idToMarketItem[i].businessDomain)) ==\r\n                keccak256(abi.encodePacked(businessDomain))\r\n            ) {\r\n                count++;\r\n            }\r\n        }\r\n\r\n        nfts = new uint256[](count);\r\n        uint currentIndex = 0;\r\n\r\n        for (uint i = 1; i <= _tokenIds.current(); i++) {\r\n            if (\r\n                bytes(idToMarketItem[i].businessDomain).length > 0 &&\r\n                keccak256(abi.encodePacked(idToMarketItem[i].businessDomain)) ==\r\n                keccak256(abi.encodePacked(businessDomain))\r\n            ) {\r\n                nfts[currentIndex] = idToMarketItem[i].tokenId;\r\n                currentIndex++;\r\n            }\r\n        }\r\n\r\n        return nfts;\r\n    }\r\n\r\n    function fetchUserNFTs() public view returns (uint256[] memory) {\r\n        uint256[] memory userNFTs = new uint256[](_tokenIds.current());\r\n        uint256 userNFTCount = 0;\r\n\r\n        for (uint i = 1; i <= _tokenIds.current(); i++) {\r\n            if (idToMarketItem[i].seller == msg.sender) {\r\n                userNFTs[userNFTCount] = idToMarketItem[i].tokenId;\r\n                userNFTCount++;\r\n            }\r\n        }\r\n\r\n        assembly {\r\n            mstore(userNFTs, userNFTCount)\r\n        }\r\n\r\n        return userNFTs;\r\n    }\r\n\r\n    function upvoteReview(uint256 tokenId) public {\r\n        require(idToMarketItem[tokenId].tokenId != 0, \"Review does not exist\");\r\n        require(\r\n            !hasUserVoted(tokenId),\r\n            \"User has already voted for this review\"\r\n        );\r\n\r\n        idToMarketItem[tokenId].upvotes++;\r\n        emit ReviewVoted(tokenId, msg.sender, true);\r\n    }\r\n\r\n    function downvoteReview(uint256 tokenId) public {\r\n        require(idToMarketItem[tokenId].tokenId != 0, \"Review does not exist\");\r\n        require(\r\n            !hasUserVoted(tokenId),\r\n            \"User has already voted for this review\"\r\n        );\r\n\r\n        idToMarketItem[tokenId].downvotes++;\r\n        emit ReviewVoted(tokenId, msg.sender, false);\r\n    }\r\n\r\n    function getReviewDetails(\r\n        uint256 tokenId\r\n    )\r\n        public\r\n        view\r\n        returns (\r\n            string[] memory comments,\r\n            uint256 upvotes,\r\n            uint256 downvotes,\r\n            bool moderated,\r\n            uint256 timestamp,\r\n            string memory category,\r\n            string memory tokenURI,\r\n            uint256 tokenid,\r\n            address payable _seller,\r\n            address payable _owner,\r\n            uint _price,\r\n            bool _sold\r\n        )\r\n    {\r\n        MarketItem storage review = idToMarketItem[tokenId];\r\n        return (\r\n            review.comments,\r\n            review.upvotes,\r\n            review.downvotes,\r\n            review.moderated,\r\n            review.timestamp,\r\n            review.category,\r\n            review.tokenURI,\r\n            review.tokenId,\r\n            review.seller,\r\n            review.owner,\r\n            review.price,\r\n            review.sold\r\n        );\r\n    }\r\n\r\n    function hasUserVoted(uint256 tokenId) public view returns (bool) {\r\n        MarketItem storage review = idToMarketItem[tokenId];\r\n        return\r\n            review.comments.length > 0 &&\r\n            (review.upvotes > 0 || review.downvotes > 0);\r\n    }\r\n\r\n    function commentOnReview(uint256 tokenId, string memory comment) public {\r\n        require(idToMarketItem[tokenId].tokenId != 0, \"Review does not exist\");\r\n        // require(bytes(comment).length > 0, \"Comment cannot be empty\");\r\n\r\n        idToMarketItem[tokenId].comments.push(comment);\r\n    }\r\n\r\n    function getBusinessDetailsByDomain(\r\n        string memory businessDomain\r\n    )\r\n        public\r\n        view\r\n        returns (\r\n            string memory username,\r\n            bool isBusiness,\r\n            string memory userBusinessDomain,\r\n            string memory businessDescription,\r\n            string memory businessCategory,\r\n            uint256 reputation\r\n        )\r\n    {\r\n        address userAddress = getUserAddressByDomain(businessDomain);\r\n\r\n        User storage user = users[userAddress];\r\n\r\n        return (\r\n            user.username,\r\n            user.isBusiness,\r\n            user.businessDomain,\r\n            user.businessDescription,\r\n            user.businessCategory,\r\n            user.reputation\r\n        );\r\n    }\r\n\r\n    function getUserAddressByDomain(\r\n        string memory businessDomain\r\n    ) public view returns (address) {\r\n        for (uint256 i = 0; i < Allusers.length; i++) {\r\n            string memory tetsDomain = AlluserDomians[Allusers[i]];\r\n            if (\r\n                keccak256(bytes(tetsDomain)) == keccak256(bytes(businessDomain))\r\n            ) {\r\n                return Allusers[i];\r\n            }\r\n        }\r\n        revert(\"No user found for the given business domain\");\r\n    }\r\n\r\n    function buyNFT(uint256 tokenId) public payable {\r\n        require(idToMarketItem[tokenId].tokenId != 0, \"NFT does not exist\");\r\n        require(!idToMarketItem[tokenId].sold, \"NFT already sold\");\r\n        require(\r\n            msg.value >= idToMarketItem[tokenId].price,\r\n            \"Insufficient funds\"\r\n        );\r\n\r\n        // Calculate the commission for the marketplace contract owner\r\n        uint256 marketplaceOwnerShare = (idToMarketItem[tokenId].price *\r\n            ownerCommissionPercentage) / 1000;\r\n        // Transfer the payment (minus the marketplace owner's share) to the seller\r\n        idToMarketItem[tokenId].seller.transfer(\r\n            msg.value - marketplaceOwnerShare\r\n        );\r\n        // Transfer the marketplace owner's share to the marketplace contract owner\r\n        payable(owner).transfer(marketplaceOwnerShare);\r\n\r\n        // Transfer ownership of the NFT to the buyer\r\n        idToMarketItem[tokenId].owner = payable(msg.sender);\r\n        idToMarketItem[tokenId].seller = payable(msg.sender);\r\n        // idToMarketItem[tokenId].sold = true;\r\n\r\n        _transfer(address(this), msg.sender, tokenId);\r\n\r\n        emit MarketItemSold(\r\n            tokenId,\r\n            idToMarketItem[tokenId].seller,\r\n            msg.sender,\r\n            idToMarketItem[tokenId].price\r\n        );\r\n    }\r\n\r\n    function delistNFT(uint256 tokenId, string memory businessDomain) public {\r\n        require(\r\n            ownerOf(tokenId) == msg.sender,\r\n            \"You are not the owner of this NFT\"\r\n        );\r\n        require(\r\n            registeredDomains[businessDomain],\r\n            \"Business domain is not registered\"\r\n        );\r\n\r\n        MarketItem storage marketItem = idToMarketItem[tokenId];\r\n        require(\r\n            keccak256(abi.encodePacked(marketItem.businessDomain)) ==\r\n                keccak256(abi.encodePacked(businessDomain)),\r\n            \"NFT is not associated with this domain\"\r\n        );\r\n\r\n        // Mark the NFT as sold (delisted) for this domain\r\n        marketItem.sold = true;\r\n\r\n        emit NFTDelisted(tokenId, businessDomain);\r\n    }\r\n\r\n    // Function to check if an address exists in the array\r\n    function isUser(address checkAddress) public view returns (bool) {\r\n        for (uint256 i = 0; i < Allusers.length; i++) {\r\n            if (Allusers[i] == checkAddress) {\r\n                return true; // Address exists in the array\r\n            }\r\n        }\r\n        return false; // Address does not exist in the array\r\n    }\r\n}\r\n",
  "sourcePath": "D:\\Blockhain Internship Invictous\\Decentralized TrustPilot\\truffle\\contracts\\UserAndNFTMarketplace.sol",
  "compiler": {
    "name": "solc",
    "version": "0.8.26+commit.8a97fa7a.Emscripten.clang"
  },
  "schemaVersion": "3.4.16",
  "updatedAt": "2024-07-16T14:00:06.178Z",
  "devdoc": {
    "errors": {
      "ERC721IncorrectOwner(address,uint256,address)": [
        {
          "details": "Indicates an error related to the ownership over a particular token. Used in transfers.",
          "params": {
            "owner": "Address of the current owner of a token.",
            "sender": "Address whose tokens are being transferred.",
            "tokenId": "Identifier number of a token."
          }
        }
      ],
      "ERC721InsufficientApproval(address,uint256)": [
        {
          "details": "Indicates a failure with the `operator`s approval. Used in transfers.",
          "params": {
            "operator": "Address that may be allowed to operate on tokens without being their owner.",
            "tokenId": "Identifier number of a token."
          }
        }
      ],
      "ERC721InvalidApprover(address)": [
        {
          "details": "Indicates a failure with the `approver` of a token to be approved. Used in approvals.",
          "params": {
            "approver": "Address initiating an approval operation."
          }
        }
      ],
      "ERC721InvalidOperator(address)": [
        {
          "details": "Indicates a failure with the `operator` to be approved. Used in approvals.",
          "params": {
            "operator": "Address that may be allowed to operate on tokens without being their owner."
          }
        }
      ],
      "ERC721InvalidOwner(address)": [
        {
          "details": "Indicates that an address can't be an owner. For example, `address(0)` is a forbidden owner in EIP-20. Used in balance queries.",
          "params": {
            "owner": "Address of the current owner of a token."
          }
        }
      ],
      "ERC721InvalidReceiver(address)": [
        {
          "details": "Indicates a failure with the token `receiver`. Used in transfers.",
          "params": {
            "receiver": "Address to which tokens are being transferred."
          }
        }
      ],
      "ERC721InvalidSender(address)": [
        {
          "details": "Indicates a failure with the token `sender`. Used in transfers.",
          "params": {
            "sender": "Address whose tokens are being transferred."
          }
        }
      ],
      "ERC721NonexistentToken(uint256)": [
        {
          "details": "Indicates a `tokenId` whose `owner` is the zero address.",
          "params": {
            "tokenId": "Identifier number of a token."
          }
        }
      ]
    },
    "events": {
      "Approval(address,address,uint256)": {
        "details": "Emitted when `owner` enables `approved` to manage the `tokenId` token."
      },
      "ApprovalForAll(address,address,bool)": {
        "details": "Emitted when `owner` enables or disables (`approved`) `operator` to manage all of its assets."
      },
      "BatchMetadataUpdate(uint256,uint256)": {
        "details": "This event emits when the metadata of a range of tokens is changed. So that the third-party platforms such as NFT market could timely update the images and related attributes of the NFTs."
      },
      "MetadataUpdate(uint256)": {
        "details": "This event emits when the metadata of a token is changed. So that the third-party platforms such as NFT market could timely update the images and related attributes of the NFT."
      },
      "Transfer(address,address,uint256)": {
        "details": "Emitted when `tokenId` token is transferred from `from` to `to`."
      }
    },
    "kind": "dev",
    "methods": {
      "approve(address,uint256)": {
        "details": "See {IERC721-approve}."
      },
      "balanceOf(address)": {
        "details": "See {IERC721-balanceOf}."
      },
      "getApproved(uint256)": {
        "details": "See {IERC721-getApproved}."
      },
      "isApprovedForAll(address,address)": {
        "details": "See {IERC721-isApprovedForAll}."
      },
      "name()": {
        "details": "See {IERC721Metadata-name}."
      },
      "ownerOf(uint256)": {
        "details": "See {IERC721-ownerOf}."
      },
      "safeTransferFrom(address,address,uint256)": {
        "details": "See {IERC721-safeTransferFrom}."
      },
      "safeTransferFrom(address,address,uint256,bytes)": {
        "details": "See {IERC721-safeTransferFrom}."
      },
      "setApprovalForAll(address,bool)": {
        "details": "See {IERC721-setApprovalForAll}."
      },
      "supportsInterface(bytes4)": {
        "details": "See {IERC165-supportsInterface}"
      },
      "symbol()": {
        "details": "See {IERC721Metadata-symbol}."
      },
      "tokenURI(uint256)": {
        "details": "See {IERC721Metadata-tokenURI}."
      },
      "transferFrom(address,address,uint256)": {
        "details": "See {IERC721-transferFrom}."
      }
    },
    "version": 1
  },
  "userdoc": {
    "kind": "user",
    "methods": {},
    "version": 1
  }
}